{
	"contract/Ballot.sol": {
		"Ballot": {
			"abi": [
				{
					"inputs": [],
					"stateMutability": "nonpayable",
					"type": "constructor"
				},
				{
					"inputs": [
						{
							"internalType": "uint256",
							"name": "",
							"type": "uint256"
						}
					],
					"name": "candidates",
					"outputs": [
						{
							"internalType": "uint256",
							"name": "number_of_votes",
							"type": "uint256"
						},
						{
							"internalType": "address payable",
							"name": "account",
							"type": "address"
						}
					],
					"stateMutability": "view",
					"type": "function"
				},
				{
					"inputs": [
						{
							"internalType": "uint256",
							"name": "time",
							"type": "uint256"
						}
					],
					"name": "check_early_date",
					"outputs": [],
					"stateMutability": "view",
					"type": "function"
				},
				{
					"inputs": [
						{
							"internalType": "uint256",
							"name": "time",
							"type": "uint256"
						}
					],
					"name": "check_late_date",
					"outputs": [],
					"stateMutability": "view",
					"type": "function"
				},
				{
					"inputs": [
						{
							"internalType": "uint256",
							"name": "d",
							"type": "uint256"
						},
						{
							"internalType": "uint256",
							"name": "pay",
							"type": "uint256"
						},
						{
							"internalType": "uint256",
							"name": "fee",
							"type": "uint256"
						},
						{
							"internalType": "address[]",
							"name": "c",
							"type": "address[]"
						}
					],
					"name": "createVoting",
					"outputs": [],
					"stateMutability": "nonpayable",
					"type": "function"
				},
				{
					"inputs": [],
					"name": "getVoteInfo",
					"outputs": [
						{
							"internalType": "uint256",
							"name": "days_to_end",
							"type": "uint256"
						},
						{
							"internalType": "uint256",
							"name": "pay",
							"type": "uint256"
						},
						{
							"internalType": "uint256",
							"name": "fee",
							"type": "uint256"
						}
					],
					"stateMutability": "view",
					"type": "function"
				},
				{
					"inputs": [],
					"name": "main_contract",
					"outputs": [
						{
							"internalType": "address",
							"name": "",
							"type": "address"
						}
					],
					"stateMutability": "view",
					"type": "function"
				},
				{
					"inputs": [
						{
							"internalType": "uint256",
							"name": "candidateIndex",
							"type": "uint256"
						}
					],
					"name": "voteFor",
					"outputs": [],
					"stateMutability": "payable",
					"type": "function"
				},
				{
					"inputs": [
						{
							"internalType": "address",
							"name": "",
							"type": "address"
						}
					],
					"name": "voters",
					"outputs": [
						{
							"internalType": "bool",
							"name": "voted",
							"type": "bool"
						},
						{
							"internalType": "uint256",
							"name": "vote",
							"type": "uint256"
						}
					],
					"stateMutability": "view",
					"type": "function"
				},
				{
					"inputs": [],
					"name": "withdrawFees",
					"outputs": [],
					"stateMutability": "nonpayable",
					"type": "function"
				}
			],
			"devdoc": {
				"kind": "dev",
				"methods": {},
				"version": 1
			},
			"evm": {
				"assembly": "    /* \"contract/Ballot.sol\":35:2943  contract Ballot {\r... */\n  mstore(0x40, 0x80)\n    /* \"contract/Ballot.sol\":488:547  constructor() {\r... */\n  callvalue\n  dup1\n  iszero\n  tag_1\n  jumpi\n  0x00\n  dup1\n  revert\ntag_1:\n  pop\n    /* \"contract/Ballot.sol\":529:539  msg.sender */\n  caller\n    /* \"contract/Ballot.sol\":513:526  main_contract */\n  0x02\n  0x00\n    /* \"contract/Ballot.sol\":513:539  main_contract = msg.sender */\n  0x0100\n  exp\n  dup2\n  sload\n  dup2\n  0xffffffffffffffffffffffffffffffffffffffff\n  mul\n  not\n  and\n  swap1\n  dup4\n  0xffffffffffffffffffffffffffffffffffffffff\n  and\n  mul\n  or\n  swap1\n  sstore\n  pop\n    /* \"contract/Ballot.sol\":35:2943  contract Ballot {\r... */\n  dataSize(sub_0)\n  dup1\n  dataOffset(sub_0)\n  0x00\n  codecopy\n  0x00\n  return\nstop\n\nsub_0: assembly {\n        /* \"contract/Ballot.sol\":35:2943  contract Ballot {\r... */\n      mstore(0x40, 0x80)\n      jumpi(tag_1, lt(calldatasize, 0x04))\n      shr(0xe0, calldataload(0x00))\n      dup1\n      0x476343ee\n      gt\n      tag_11\n      jumpi\n      dup1\n      0x476343ee\n      eq\n      tag_6\n      jumpi\n      dup1\n      0x4c5ee9fa\n      eq\n      tag_7\n      jumpi\n      dup1\n      0x75c5e531\n      eq\n      tag_8\n      jumpi\n      dup1\n      0x86a50535\n      eq\n      tag_9\n      jumpi\n      dup1\n      0xa3ec138d\n      eq\n      tag_10\n      jumpi\n      jump(tag_1)\n    tag_11:\n      dup1\n      0x0d8a1bcb\n      eq\n      tag_2\n      jumpi\n      dup1\n      0x2102d43b\n      eq\n      tag_3\n      jumpi\n      dup1\n      0x25dff9d1\n      eq\n      tag_4\n      jumpi\n      dup1\n      0x3477ee2e\n      eq\n      tag_5\n      jumpi\n    tag_1:\n      0x00\n      dup1\n      revert\n        /* \"contract/Ballot.sol\":785:903  function check_early_date(uint time) public view {\r... */\n    tag_2:\n      callvalue\n      dup1\n      iszero\n      tag_12\n      jumpi\n      0x00\n      dup1\n      revert\n    tag_12:\n      pop\n      tag_13\n      0x04\n      dup1\n      calldatasize\n      sub\n      dup2\n      add\n      swap1\n      tag_14\n      swap2\n      swap1\n      tag_15\n      jump\t// in\n    tag_14:\n      tag_16\n      jump\t// in\n    tag_13:\n      stop\n        /* \"contract/Ballot.sol\":659:777  function check_late_date(uint time) public view {  \r... */\n    tag_3:\n      callvalue\n      dup1\n      iszero\n      tag_17\n      jumpi\n      0x00\n      dup1\n      revert\n    tag_17:\n      pop\n      tag_18\n      0x04\n      dup1\n      calldatasize\n      sub\n      dup2\n      add\n      swap1\n      tag_19\n      swap2\n      swap1\n      tag_15\n      jump\t// in\n    tag_19:\n      tag_20\n      jump\t// in\n    tag_18:\n      stop\n        /* \"contract/Ballot.sol\":2744:2940  function getVoteInfo() public view returns (uint days_to_end, uint pay, uint fee ) {\r... */\n    tag_4:\n      callvalue\n      dup1\n      iszero\n      tag_21\n      jumpi\n      0x00\n      dup1\n      revert\n    tag_21:\n      pop\n      tag_22\n      tag_23\n      jump\t// in\n    tag_22:\n      mload(0x40)\n      tag_24\n      swap4\n      swap3\n      swap2\n      swap1\n      tag_25\n      jump\t// in\n    tag_24:\n      mload(0x40)\n      dup1\n      swap2\n      sub\n      swap1\n      return\n        /* \"contract/Ballot.sol\":276:305  candidate[] public candidates */\n    tag_5:\n      callvalue\n      dup1\n      iszero\n      tag_26\n      jumpi\n      0x00\n      dup1\n      revert\n    tag_26:\n      pop\n      tag_27\n      0x04\n      dup1\n      calldatasize\n      sub\n      dup2\n      add\n      swap1\n      tag_28\n      swap2\n      swap1\n      tag_15\n      jump\t// in\n    tag_28:\n      tag_29\n      jump\t// in\n    tag_27:\n      mload(0x40)\n      tag_30\n      swap3\n      swap2\n      swap1\n      tag_31\n      jump\t// in\n    tag_30:\n      mload(0x40)\n      dup1\n      swap2\n      sub\n      swap1\n      return\n        /* \"contract/Ballot.sol\":1451:2404  function withdrawFees() is_owner public {\r... */\n    tag_6:\n      callvalue\n      dup1\n      iszero\n      tag_32\n      jumpi\n      0x00\n      dup1\n      revert\n    tag_32:\n      pop\n      tag_33\n      tag_34\n      jump\t// in\n    tag_33:\n      stop\n        /* \"contract/Ballot.sol\":314:342  address public main_contract */\n    tag_7:\n      callvalue\n      dup1\n      iszero\n      tag_35\n      jumpi\n      0x00\n      dup1\n      revert\n    tag_35:\n      pop\n      tag_36\n      tag_37\n      jump\t// in\n    tag_36:\n      mload(0x40)\n      tag_38\n      swap2\n      swap1\n      tag_39\n      jump\t// in\n    tag_38:\n      mload(0x40)\n      dup1\n      swap2\n      sub\n      swap1\n      return\n        /* \"contract/Ballot.sol\":911:1443  function createVoting(uint d, uint pay, uint fee, address[] memory c) is_owner public {\r... */\n    tag_8:\n      callvalue\n      dup1\n      iszero\n      tag_40\n      jumpi\n      0x00\n      dup1\n      revert\n    tag_40:\n      pop\n      tag_41\n      0x04\n      dup1\n      calldatasize\n      sub\n      dup2\n      add\n      swap1\n      tag_42\n      swap2\n      swap1\n      tag_43\n      jump\t// in\n    tag_42:\n      tag_44\n      jump\t// in\n    tag_41:\n      stop\n        /* \"contract/Ballot.sol\":2412:2736  function voteFor(uint candidateIndex) public payable {\r... */\n    tag_9:\n      tag_45\n      0x04\n      dup1\n      calldatasize\n      sub\n      dup2\n      add\n      swap1\n      tag_46\n      swap2\n      swap1\n      tag_15\n      jump\t// in\n    tag_46:\n      tag_47\n      jump\t// in\n    tag_45:\n      stop\n        /* \"contract/Ballot.sol\":228:267  mapping(address => voter) public voters */\n    tag_10:\n      callvalue\n      dup1\n      iszero\n      tag_48\n      jumpi\n      0x00\n      dup1\n      revert\n    tag_48:\n      pop\n      tag_49\n      0x04\n      dup1\n      calldatasize\n      sub\n      dup2\n      add\n      swap1\n      tag_50\n      swap2\n      swap1\n      tag_51\n      jump\t// in\n    tag_50:\n      tag_52\n      jump\t// in\n    tag_49:\n      mload(0x40)\n      tag_53\n      swap3\n      swap2\n      swap1\n      tag_54\n      jump\t// in\n    tag_53:\n      mload(0x40)\n      dup1\n      swap2\n      sub\n      swap1\n      return\n        /* \"contract/Ballot.sol\":785:903  function check_early_date(uint time) public view {\r... */\n    tag_16:\n        /* \"contract/Ballot.sol\":872:876  time */\n      dup1\n        /* \"contract/Ballot.sol\":853:868  block.timestamp */\n      timestamp\n        /* \"contract/Ballot.sol\":853:876  block.timestamp <= time */\n      gt\n      iszero\n        /* \"contract/Ballot.sol\":845:895  require(block.timestamp <= time, \"too early date\") */\n      tag_56\n      jumpi\n      mload(0x40)\n      0x08c379a000000000000000000000000000000000000000000000000000000000\n      dup2\n      mstore\n      0x04\n      add\n      tag_57\n      swap1\n      tag_58\n      jump\t// in\n    tag_57:\n      mload(0x40)\n      dup1\n      swap2\n      sub\n      swap1\n      revert\n    tag_56:\n        /* \"contract/Ballot.sol\":785:903  function check_early_date(uint time) public view {\r... */\n      pop\n      jump\t// out\n        /* \"contract/Ballot.sol\":659:777  function check_late_date(uint time) public view {  \r... */\n    tag_20:\n        /* \"contract/Ballot.sol\":747:751  time */\n      dup1\n        /* \"contract/Ballot.sol\":728:743  block.timestamp */\n      timestamp\n        /* \"contract/Ballot.sol\":728:751  block.timestamp >= time */\n      lt\n      iszero\n        /* \"contract/Ballot.sol\":720:769  require(block.timestamp >= time, \"too late date\") */\n      tag_60\n      jumpi\n      mload(0x40)\n      0x08c379a000000000000000000000000000000000000000000000000000000000\n      dup2\n      mstore\n      0x04\n      add\n      tag_61\n      swap1\n      tag_62\n      jump\t// in\n    tag_61:\n      mload(0x40)\n      dup1\n      swap2\n      sub\n      swap1\n      revert\n    tag_60:\n        /* \"contract/Ballot.sol\":659:777  function check_late_date(uint time) public view {  \r... */\n      pop\n      jump\t// out\n        /* \"contract/Ballot.sol\":2744:2940  function getVoteInfo() public view returns (uint days_to_end, uint pay, uint fee ) {\r... */\n    tag_23:\n        /* \"contract/Ballot.sol\":2788:2804  uint days_to_end */\n      0x00\n        /* \"contract/Ballot.sol\":2806:2814  uint pay */\n      dup1\n        /* \"contract/Ballot.sol\":2816:2824  uint fee */\n      0x00\n        /* \"contract/Ballot.sol\":2895:2897  24 */\n      0x18\n        /* \"contract/Ballot.sol\":2890:2892  60 */\n      0x3c\n        /* \"contract/Ballot.sol\":2885:2887  60 */\n      dup1\n        /* \"contract/Ballot.sol\":2866:2881  block.timestamp */\n      timestamp\n        /* \"contract/Ballot.sol\":2852:2863  finish_date */\n      sload(0x03)\n        /* \"contract/Ballot.sol\":2852:2881  finish_date - block.timestamp */\n      tag_64\n      swap2\n      swap1\n      tag_65\n      jump\t// in\n    tag_64:\n        /* \"contract/Ballot.sol\":2851:2887  (finish_date - block.timestamp) / 60 */\n      tag_66\n      swap2\n      swap1\n      tag_67\n      jump\t// in\n    tag_66:\n        /* \"contract/Ballot.sol\":2851:2892  (finish_date - block.timestamp) / 60 / 60 */\n      tag_68\n      swap2\n      swap1\n      tag_67\n      jump\t// in\n    tag_68:\n        /* \"contract/Ballot.sol\":2851:2897  (finish_date - block.timestamp) / 60 / 60 / 24 */\n      tag_69\n      swap2\n      swap1\n      tag_67\n      jump\t// in\n    tag_69:\n        /* \"contract/Ballot.sol\":2837:2897  days_to_end = (finish_date - block.timestamp) / 60 / 60 / 24 */\n      swap3\n      pop\n        /* \"contract/Ballot.sol\":2914:2915  x */\n      sload(0x04)\n        /* \"contract/Ballot.sol\":2908:2915  pay = x */\n      swap2\n      pop\n        /* \"contract/Ballot.sol\":2931:2932  f */\n      sload(0x05)\n        /* \"contract/Ballot.sol\":2925:2932  fee = f */\n      swap1\n      pop\n        /* \"contract/Ballot.sol\":2744:2940  function getVoteInfo() public view returns (uint days_to_end, uint pay, uint fee ) {\r... */\n      swap1\n      swap2\n      swap3\n      jump\t// out\n        /* \"contract/Ballot.sol\":276:305  candidate[] public candidates */\n    tag_29:\n      0x01\n      dup2\n      dup2\n      sload\n      dup2\n      lt\n      tag_70\n      jumpi\n      0x00\n      dup1\n      revert\n    tag_70:\n      swap1\n      0x00\n      mstore\n      keccak256(0x00, 0x20)\n      swap1\n      0x02\n      mul\n      add\n      0x00\n      swap2\n      pop\n      swap1\n      pop\n      dup1\n      0x00\n      add\n      sload\n      swap1\n      dup1\n      0x01\n      add\n      0x00\n      swap1\n      sload\n      swap1\n      0x0100\n      exp\n      swap1\n      div\n      0xffffffffffffffffffffffffffffffffffffffff\n      and\n      swap1\n      pop\n      dup3\n      jump\t// out\n        /* \"contract/Ballot.sol\":1451:2404  function withdrawFees() is_owner public {\r... */\n    tag_34:\n        /* \"contract/Ballot.sol\":604:614  msg.sender */\n      caller\n        /* \"contract/Ballot.sol\":587:614  main_contract == msg.sender */\n      0xffffffffffffffffffffffffffffffffffffffff\n      and\n        /* \"contract/Ballot.sol\":587:600  main_contract */\n      0x02\n      0x00\n      swap1\n      sload\n      swap1\n      0x0100\n      exp\n      swap1\n      div\n      0xffffffffffffffffffffffffffffffffffffffff\n      and\n        /* \"contract/Ballot.sol\":587:614  main_contract == msg.sender */\n      0xffffffffffffffffffffffffffffffffffffffff\n      and\n      eq\n        /* \"contract/Ballot.sol\":583:644  if (main_contract == msg.sender) {\r... */\n      iszero\n      tag_73\n      jumpi\n        /* \"contract/Ballot.sol\":1502:1530  check_late_date(finish_date) */\n      tag_75\n        /* \"contract/Ballot.sol\":1518:1529  finish_date */\n      sload(0x03)\n        /* \"contract/Ballot.sol\":1502:1517  check_late_date */\n      tag_20\n        /* \"contract/Ballot.sol\":1502:1530  check_late_date(finish_date) */\n      jump\t// in\n    tag_75:\n        /* \"contract/Ballot.sol\":1543:1557  uint max_votes */\n      0x00\n        /* \"contract/Ballot.sol\":1572:1591  uint winners_number */\n      dup1\n        /* \"contract/Ballot.sol\":1594:1595  1 */\n      0x01\n        /* \"contract/Ballot.sol\":1572:1595  uint winners_number = 1 */\n      swap1\n      pop\n        /* \"contract/Ballot.sol\":1606:1620  uint all_votes */\n      0x00\n        /* \"contract/Ballot.sol\":1642:1648  uint i */\n      dup1\n        /* \"contract/Ballot.sol\":1637:2042  for (uint i = 0; i < candidates.length; i++) {\r... */\n    tag_76:\n        /* \"contract/Ballot.sol\":1658:1668  candidates */\n      0x01\n        /* \"contract/Ballot.sol\":1658:1675  candidates.length */\n      dup1\n      sload\n      swap1\n      pop\n        /* \"contract/Ballot.sol\":1654:1655  i */\n      dup2\n        /* \"contract/Ballot.sol\":1654:1675  i < candidates.length */\n      lt\n        /* \"contract/Ballot.sol\":1637:2042  for (uint i = 0; i < candidates.length; i++) {\r... */\n      iszero\n      tag_77\n      jumpi\n        /* \"contract/Ballot.sol\":1733:1742  max_votes */\n      dup4\n        /* \"contract/Ballot.sol\":1701:1711  candidates */\n      0x01\n        /* \"contract/Ballot.sol\":1712:1713  i */\n      dup3\n        /* \"contract/Ballot.sol\":1701:1714  candidates[i] */\n      dup2\n      sload\n      dup2\n      lt\n      tag_79\n      jumpi\n      tag_80\n      tag_81\n      jump\t// in\n    tag_80:\n    tag_79:\n      swap1\n      0x00\n      mstore\n      keccak256(0x00, 0x20)\n      swap1\n      0x02\n      mul\n      add\n        /* \"contract/Ballot.sol\":1701:1730  candidates[i].number_of_votes */\n      0x00\n      add\n      sload\n        /* \"contract/Ballot.sol\":1701:1742  candidates[i].number_of_votes > max_votes */\n      gt\n        /* \"contract/Ballot.sol\":1697:1857  if (candidates[i].number_of_votes > max_votes) {\r... */\n      iszero\n      tag_83\n      jumpi\n        /* \"contract/Ballot.sol\":1775:1785  candidates */\n      0x01\n        /* \"contract/Ballot.sol\":1786:1787  i */\n      dup2\n        /* \"contract/Ballot.sol\":1775:1788  candidates[i] */\n      dup2\n      sload\n      dup2\n      lt\n      tag_84\n      jumpi\n      tag_85\n      tag_81\n      jump\t// in\n    tag_85:\n    tag_84:\n      swap1\n      0x00\n      mstore\n      keccak256(0x00, 0x20)\n      swap1\n      0x02\n      mul\n      add\n        /* \"contract/Ballot.sol\":1775:1804  candidates[i].number_of_votes */\n      0x00\n      add\n      sload\n        /* \"contract/Ballot.sol\":1763:1804  max_votes = candidates[i].number_of_votes */\n      swap4\n      pop\n        /* \"contract/Ballot.sol\":1840:1841  1 */\n      0x01\n        /* \"contract/Ballot.sol\":1823:1841  winners_number = 1 */\n      swap3\n      pop\n        /* \"contract/Ballot.sol\":1697:1857  if (candidates[i].number_of_votes > max_votes) {\r... */\n    tag_83:\n        /* \"contract/Ballot.sol\":1885:1895  candidates */\n      0x01\n        /* \"contract/Ballot.sol\":1896:1897  i */\n      dup2\n        /* \"contract/Ballot.sol\":1885:1898  candidates[i] */\n      dup2\n      sload\n      dup2\n      lt\n      tag_87\n      jumpi\n      tag_88\n      tag_81\n      jump\t// in\n    tag_88:\n    tag_87:\n      swap1\n      0x00\n      mstore\n      keccak256(0x00, 0x20)\n      swap1\n      0x02\n      mul\n      add\n        /* \"contract/Ballot.sol\":1885:1914  candidates[i].number_of_votes */\n      0x00\n      add\n      sload\n        /* \"contract/Ballot.sol\":1872:1914  all_votes += candidates[i].number_of_votes */\n      dup3\n      tag_90\n      swap2\n      swap1\n      tag_91\n      jump\t// in\n    tag_90:\n      swap2\n      pop\n        /* \"contract/Ballot.sol\":1966:1975  max_votes */\n      dup4\n        /* \"contract/Ballot.sol\":1933:1943  candidates */\n      0x01\n        /* \"contract/Ballot.sol\":1944:1945  i */\n      dup3\n        /* \"contract/Ballot.sol\":1933:1946  candidates[i] */\n      dup2\n      sload\n      dup2\n      lt\n      tag_92\n      jumpi\n      tag_93\n      tag_81\n      jump\t// in\n    tag_93:\n    tag_92:\n      swap1\n      0x00\n      mstore\n      keccak256(0x00, 0x20)\n      swap1\n      0x02\n      mul\n      add\n        /* \"contract/Ballot.sol\":1933:1962  candidates[i].number_of_votes */\n      0x00\n      add\n      sload\n        /* \"contract/Ballot.sol\":1933:1975  candidates[i].number_of_votes == max_votes */\n      eq\n        /* \"contract/Ballot.sol\":1929:2031  if (candidates[i].number_of_votes == max_votes) {\r... */\n      iszero\n      tag_95\n      jumpi\n        /* \"contract/Ballot.sol\":2014:2015  1 */\n      0x01\n        /* \"contract/Ballot.sol\":1996:2015  winners_number += 1 */\n      dup4\n      tag_96\n      swap2\n      swap1\n      tag_91\n      jump\t// in\n    tag_96:\n      swap3\n      pop\n        /* \"contract/Ballot.sol\":1929:2031  if (candidates[i].number_of_votes == max_votes) {\r... */\n    tag_95:\n        /* \"contract/Ballot.sol\":1677:1680  i++ */\n      dup1\n      dup1\n      tag_97\n      swap1\n      tag_98\n      jump\t// in\n    tag_97:\n      swap2\n      pop\n      pop\n        /* \"contract/Ballot.sol\":1637:2042  for (uint i = 0; i < candidates.length; i++) {\r... */\n      jump(tag_76)\n    tag_77:\n      pop\n        /* \"contract/Ballot.sol\":2056:2066  uint prize */\n      0x00\n        /* \"contract/Ballot.sol\":2091:2105  winners_number */\n      dup3\n        /* \"contract/Ballot.sol\":2079:2088  all_votes */\n      dup3\n        /* \"contract/Ballot.sol\":2074:2075  f */\n      sload(0x05)\n        /* \"contract/Ballot.sol\":2070:2071  x */\n      sload(0x04)\n        /* \"contract/Ballot.sol\":2070:2075  x - f */\n      tag_99\n      swap2\n      swap1\n      tag_65\n      jump\t// in\n    tag_99:\n        /* \"contract/Ballot.sol\":2069:2088  (x - f) * all_votes */\n      tag_100\n      swap2\n      swap1\n      tag_101\n      jump\t// in\n    tag_100:\n        /* \"contract/Ballot.sol\":2069:2105  (x - f) * all_votes / winners_number */\n      tag_102\n      swap2\n      swap1\n      tag_67\n      jump\t// in\n    tag_102:\n        /* \"contract/Ballot.sol\":2056:2105  uint prize = (x - f) * all_votes / winners_number */\n      swap1\n      pop\n        /* \"contract/Ballot.sol\":2132:2133  0 */\n      0x00\n        /* \"contract/Ballot.sol\":2123:2128  prize */\n      dup2\n        /* \"contract/Ballot.sol\":2123:2133  prize >= 0 */\n      lt\n      iszero\n        /* \"contract/Ballot.sol\":2116:2134  assert(prize >= 0) */\n      tag_103\n      jumpi\n      tag_104\n      tag_105\n      jump\t// in\n    tag_104:\n    tag_103:\n        /* \"contract/Ballot.sol\":2152:2158  uint i */\n      0x00\n        /* \"contract/Ballot.sol\":2147:2338  for (uint i = 0; i < candidates.length; i++) {\r... */\n    tag_106:\n        /* \"contract/Ballot.sol\":2168:2178  candidates */\n      0x01\n        /* \"contract/Ballot.sol\":2168:2185  candidates.length */\n      dup1\n      sload\n      swap1\n      pop\n        /* \"contract/Ballot.sol\":2164:2165  i */\n      dup2\n        /* \"contract/Ballot.sol\":2164:2185  i < candidates.length */\n      lt\n        /* \"contract/Ballot.sol\":2147:2338  for (uint i = 0; i < candidates.length; i++) {\r... */\n      iszero\n      tag_107\n      jumpi\n        /* \"contract/Ballot.sol\":2244:2253  max_votes */\n      dup5\n        /* \"contract/Ballot.sol\":2211:2221  candidates */\n      0x01\n        /* \"contract/Ballot.sol\":2222:2223  i */\n      dup3\n        /* \"contract/Ballot.sol\":2211:2224  candidates[i] */\n      dup2\n      sload\n      dup2\n      lt\n      tag_109\n      jumpi\n      tag_110\n      tag_81\n      jump\t// in\n    tag_110:\n    tag_109:\n      swap1\n      0x00\n      mstore\n      keccak256(0x00, 0x20)\n      swap1\n      0x02\n      mul\n      add\n        /* \"contract/Ballot.sol\":2211:2240  candidates[i].number_of_votes */\n      0x00\n      add\n      sload\n        /* \"contract/Ballot.sol\":2211:2253  candidates[i].number_of_votes == max_votes */\n      eq\n        /* \"contract/Ballot.sol\":2207:2327  if (candidates[i].number_of_votes == max_votes) {\r... */\n      iszero\n      tag_112\n      jumpi\n        /* \"contract/Ballot.sol\":2274:2284  candidates */\n      0x01\n        /* \"contract/Ballot.sol\":2285:2286  i */\n      dup2\n        /* \"contract/Ballot.sol\":2274:2287  candidates[i] */\n      dup2\n      sload\n      dup2\n      lt\n      tag_113\n      jumpi\n      tag_114\n      tag_81\n      jump\t// in\n    tag_114:\n    tag_113:\n      swap1\n      0x00\n      mstore\n      keccak256(0x00, 0x20)\n      swap1\n      0x02\n      mul\n      add\n        /* \"contract/Ballot.sol\":2274:2295  candidates[i].account */\n      0x01\n      add\n      0x00\n      swap1\n      sload\n      swap1\n      0x0100\n      exp\n      swap1\n      div\n      0xffffffffffffffffffffffffffffffffffffffff\n      and\n        /* \"contract/Ballot.sol\":2274:2304  candidates[i].account.transfer */\n      0xffffffffffffffffffffffffffffffffffffffff\n      and\n        /* \"contract/Ballot.sol\":2274:2311  candidates[i].account.transfer(prize) */\n      0x08fc\n        /* \"contract/Ballot.sol\":2305:2310  prize */\n      dup4\n        /* \"contract/Ballot.sol\":2274:2311  candidates[i].account.transfer(prize) */\n      swap1\n      dup2\n      iszero\n      mul\n      swap1\n      mload(0x40)\n      0x00\n      mload(0x40)\n      dup1\n      dup4\n      sub\n      dup2\n      dup6\n      dup9\n      dup9\n      call\n      swap4\n      pop\n      pop\n      pop\n      pop\n      iszero\n      dup1\n      iszero\n      tag_117\n      jumpi\n      returndatasize\n      0x00\n      dup1\n      returndatacopy\n      revert(0x00, returndatasize)\n    tag_117:\n      pop\n        /* \"contract/Ballot.sol\":2207:2327  if (candidates[i].number_of_votes == max_votes) {\r... */\n    tag_112:\n        /* \"contract/Ballot.sol\":2187:2190  i++ */\n      dup1\n      dup1\n      tag_118\n      swap1\n      tag_98\n      jump\t// in\n    tag_118:\n      swap2\n      pop\n      pop\n        /* \"contract/Ballot.sol\":2147:2338  for (uint i = 0; i < candidates.length; i++) {\r... */\n      jump(tag_106)\n    tag_107:\n      pop\n        /* \"contract/Ballot.sol\":2358:2371  main_contract */\n      0x02\n      0x00\n      swap1\n      sload\n      swap1\n      0x0100\n      exp\n      swap1\n      div\n      0xffffffffffffffffffffffffffffffffffffffff\n      and\n        /* \"contract/Ballot.sol\":2350:2381  payable(main_contract).transfer */\n      0xffffffffffffffffffffffffffffffffffffffff\n      and\n        /* \"contract/Ballot.sol\":2350:2396  payable(main_contract).transfer(f * all_votes) */\n      0x08fc\n        /* \"contract/Ballot.sol\":2386:2395  all_votes */\n      dup4\n        /* \"contract/Ballot.sol\":2382:2383  f */\n      sload(0x05)\n        /* \"contract/Ballot.sol\":2382:2395  f * all_votes */\n      tag_119\n      swap2\n      swap1\n      tag_101\n      jump\t// in\n    tag_119:\n        /* \"contract/Ballot.sol\":2350:2396  payable(main_contract).transfer(f * all_votes) */\n      swap1\n      dup2\n      iszero\n      mul\n      swap1\n      mload(0x40)\n      0x00\n      mload(0x40)\n      dup1\n      dup4\n      sub\n      dup2\n      dup6\n      dup9\n      dup9\n      call\n      swap4\n      pop\n      pop\n      pop\n      pop\n      iszero\n      dup1\n      iszero\n      tag_121\n      jumpi\n      returndatasize\n      0x00\n      dup1\n      returndatacopy\n      revert(0x00, returndatasize)\n    tag_121:\n      pop\n        /* \"contract/Ballot.sol\":1491:2404  {\r... */\n      pop\n      pop\n      pop\n      pop\n        /* \"contract/Ballot.sol\":583:644  if (main_contract == msg.sender) {\r... */\n    tag_73:\n        /* \"contract/Ballot.sol\":1451:2404  function withdrawFees() is_owner public {\r... */\n      jump\t// out\n        /* \"contract/Ballot.sol\":314:342  address public main_contract */\n    tag_37:\n      0x02\n      0x00\n      swap1\n      sload\n      swap1\n      0x0100\n      exp\n      swap1\n      div\n      0xffffffffffffffffffffffffffffffffffffffff\n      and\n      dup2\n      jump\t// out\n        /* \"contract/Ballot.sol\":911:1443  function createVoting(uint d, uint pay, uint fee, address[] memory c) is_owner public {\r... */\n    tag_44:\n        /* \"contract/Ballot.sol\":604:614  msg.sender */\n      caller\n        /* \"contract/Ballot.sol\":587:614  main_contract == msg.sender */\n      0xffffffffffffffffffffffffffffffffffffffff\n      and\n        /* \"contract/Ballot.sol\":587:600  main_contract */\n      0x02\n      0x00\n      swap1\n      sload\n      swap1\n      0x0100\n      exp\n      swap1\n      div\n      0xffffffffffffffffffffffffffffffffffffffff\n      and\n        /* \"contract/Ballot.sol\":587:614  main_contract == msg.sender */\n      0xffffffffffffffffffffffffffffffffffffffff\n      and\n      eq\n        /* \"contract/Ballot.sol\":583:644  if (main_contract == msg.sender) {\r... */\n      iszero\n      tag_123\n      jumpi\n        /* \"contract/Ballot.sol\":1020:1021  0 */\n      0x00\n        /* \"contract/Ballot.sol\":1016:1017  d */\n      dup5\n        /* \"contract/Ballot.sol\":1016:1021  d > 0 */\n      gt\n        /* \"contract/Ballot.sol\":1008:1044  require(d > 0, \"can't be zero days\") */\n      tag_125\n      jumpi\n      mload(0x40)\n      0x08c379a000000000000000000000000000000000000000000000000000000000\n      dup2\n      mstore\n      0x04\n      add\n      tag_126\n      swap1\n      tag_127\n      jump\t// in\n    tag_126:\n      mload(0x40)\n      dup1\n      swap2\n      sub\n      swap1\n      revert\n    tag_125:\n        /* \"contract/Ballot.sol\":1074:1075  0 */\n      0x00\n        /* \"contract/Ballot.sol\":1063:1064  c */\n      dup2\n        /* \"contract/Ballot.sol\":1063:1071  c.length */\n      mload\n        /* \"contract/Ballot.sol\":1063:1075  c.length > 0 */\n      gt\n        /* \"contract/Ballot.sol\":1055:1105  require(c.length > 0, \"need at least 1 candidate\") */\n      tag_128\n      jumpi\n      mload(0x40)\n      0x08c379a000000000000000000000000000000000000000000000000000000000\n      dup2\n      mstore\n      0x04\n      add\n      tag_129\n      swap1\n      tag_130\n      jump\t// in\n    tag_129:\n      mload(0x40)\n      dup1\n      swap2\n      sub\n      swap1\n      revert\n    tag_128:\n        /* \"contract/Ballot.sol\":1153:1159  1 days */\n      0x015180\n        /* \"contract/Ballot.sol\":1149:1150  d */\n      dup5\n        /* \"contract/Ballot.sol\":1149:1159  d * 1 days */\n      tag_131\n      swap2\n      swap1\n      tag_101\n      jump\t// in\n    tag_131:\n        /* \"contract/Ballot.sol\":1130:1145  block.timestamp */\n      timestamp\n        /* \"contract/Ballot.sol\":1130:1160  block.timestamp + (d * 1 days) */\n      tag_132\n      swap2\n      swap1\n      tag_91\n      jump\t// in\n    tag_132:\n        /* \"contract/Ballot.sol\":1116:1127  finish_date */\n      0x03\n        /* \"contract/Ballot.sol\":1116:1160  finish_date = block.timestamp + (d * 1 days) */\n      dup2\n      swap1\n      sstore\n      pop\n        /* \"contract/Ballot.sol\":1175:1178  pay */\n      dup3\n        /* \"contract/Ballot.sol\":1171:1172  x */\n      0x04\n        /* \"contract/Ballot.sol\":1171:1178  x = pay */\n      dup2\n      swap1\n      sstore\n      pop\n        /* \"contract/Ballot.sol\":1193:1196  fee */\n      dup2\n        /* \"contract/Ballot.sol\":1189:1190  f */\n      0x05\n        /* \"contract/Ballot.sol\":1189:1196  f = fee */\n      dup2\n      swap1\n      sstore\n      pop\n        /* \"contract/Ballot.sol\":1212:1218  uint i */\n      0x00\n        /* \"contract/Ballot.sol\":1207:1436  for (uint i = 0; i < c.length; i++) {\r... */\n    tag_133:\n        /* \"contract/Ballot.sol\":1228:1229  c */\n      dup2\n        /* \"contract/Ballot.sol\":1228:1236  c.length */\n      mload\n        /* \"contract/Ballot.sol\":1224:1225  i */\n      dup2\n        /* \"contract/Ballot.sol\":1224:1236  i < c.length */\n      lt\n        /* \"contract/Ballot.sol\":1207:1436  for (uint i = 0; i < c.length; i++) {\r... */\n      iszero\n      tag_134\n      jumpi\n        /* \"contract/Ballot.sol\":1258:1268  candidates */\n      0x01\n        /* \"contract/Ballot.sol\":1292:1409  candidate({\r... */\n      mload(0x40)\n      dup1\n      0x40\n      add\n      0x40\n      mstore\n      dup1\n        /* \"contract/Ballot.sol\":1388:1389  0 */\n      0x00\n        /* \"contract/Ballot.sol\":1292:1409  candidate({\r... */\n      dup2\n      mstore\n      0x20\n      add\n        /* \"contract/Ballot.sol\":1342:1343  c */\n      dup5\n        /* \"contract/Ballot.sol\":1344:1345  i */\n      dup5\n        /* \"contract/Ballot.sol\":1342:1346  c[i] */\n      dup2\n      mload\n      dup2\n      lt\n      tag_136\n      jumpi\n      tag_137\n      tag_81\n      jump\t// in\n    tag_137:\n    tag_136:\n      0x20\n      mul\n      0x20\n      add\n      add\n      mload\n        /* \"contract/Ballot.sol\":1292:1409  candidate({\r... */\n      0xffffffffffffffffffffffffffffffffffffffff\n      and\n      dup2\n      mstore\n      pop\n        /* \"contract/Ballot.sol\":1258:1424  candidates.push(\r... */\n      swap1\n      dup1\n      0x01\n      dup2\n      sload\n      add\n      dup1\n      dup3\n      sstore\n      dup1\n      swap2\n      pop\n      pop\n      0x01\n      swap1\n      sub\n      swap1\n      0x00\n      mstore\n      keccak256(0x00, 0x20)\n      swap1\n      0x02\n      mul\n      add\n      0x00\n      swap1\n      swap2\n      swap1\n      swap2\n      swap1\n      swap2\n      pop\n      0x00\n      dup3\n      add\n      mload\n      dup2\n      0x00\n      add\n      sstore\n      0x20\n      dup3\n      add\n      mload\n      dup2\n      0x01\n      add\n      exp(0x0100, 0x00)\n      dup2\n      sload\n      dup2\n      0xffffffffffffffffffffffffffffffffffffffff\n      mul\n      not\n      and\n      swap1\n      dup4\n      0xffffffffffffffffffffffffffffffffffffffff\n      and\n      mul\n      or\n      swap1\n      sstore\n      pop\n      pop\n      pop\n        /* \"contract/Ballot.sol\":1238:1241  i++ */\n      dup1\n      dup1\n      tag_139\n      swap1\n      tag_98\n      jump\t// in\n    tag_139:\n      swap2\n      pop\n      pop\n        /* \"contract/Ballot.sol\":1207:1436  for (uint i = 0; i < c.length; i++) {\r... */\n      jump(tag_133)\n    tag_134:\n      pop\n        /* \"contract/Ballot.sol\":583:644  if (main_contract == msg.sender) {\r... */\n    tag_123:\n        /* \"contract/Ballot.sol\":911:1443  function createVoting(uint d, uint pay, uint fee, address[] memory c) is_owner public {\r... */\n      pop\n      pop\n      pop\n      pop\n      jump\t// out\n        /* \"contract/Ballot.sol\":2412:2736  function voteFor(uint candidateIndex) public payable {\r... */\n    tag_47:\n        /* \"contract/Ballot.sol\":2476:2504  check_late_date(finish_date) */\n      tag_141\n        /* \"contract/Ballot.sol\":2492:2503  finish_date */\n      sload(0x03)\n        /* \"contract/Ballot.sol\":2476:2491  check_late_date */\n      tag_20\n        /* \"contract/Ballot.sol\":2476:2504  check_late_date(finish_date) */\n      jump\t// in\n    tag_141:\n        /* \"contract/Ballot.sol\":2524:2530  voters */\n      0x00\n        /* \"contract/Ballot.sol\":2524:2542  voters[msg.sender] */\n      dup1\n        /* \"contract/Ballot.sol\":2531:2541  msg.sender */\n      caller\n        /* \"contract/Ballot.sol\":2524:2542  voters[msg.sender] */\n      0xffffffffffffffffffffffffffffffffffffffff\n      and\n      0xffffffffffffffffffffffffffffffffffffffff\n      and\n      dup2\n      mstore\n      0x20\n      add\n      swap1\n      dup2\n      mstore\n      0x20\n      add\n      0x00\n      keccak256\n        /* \"contract/Ballot.sol\":2524:2548  voters[msg.sender].voted */\n      0x00\n      add\n      0x00\n      swap1\n      sload\n      swap1\n      0x0100\n      exp\n      swap1\n      div\n      0xff\n      and\n        /* \"contract/Ballot.sol\":2523:2548  !voters[msg.sender].voted */\n      iszero\n        /* \"contract/Ballot.sol\":2515:2577  require(!voters[msg.sender].voted, \"Voter has already voted.\") */\n      tag_142\n      jumpi\n      mload(0x40)\n      0x08c379a000000000000000000000000000000000000000000000000000000000\n      dup2\n      mstore\n      0x04\n      add\n      tag_143\n      swap1\n      tag_144\n      jump\t// in\n    tag_143:\n      mload(0x40)\n      dup1\n      swap2\n      sub\n      swap1\n      revert\n    tag_142:\n        /* \"contract/Ballot.sol\":2615:2619  true */\n      0x01\n        /* \"contract/Ballot.sol\":2588:2594  voters */\n      0x00\n        /* \"contract/Ballot.sol\":2588:2606  voters[msg.sender] */\n      dup1\n        /* \"contract/Ballot.sol\":2595:2605  msg.sender */\n      caller\n        /* \"contract/Ballot.sol\":2588:2606  voters[msg.sender] */\n      0xffffffffffffffffffffffffffffffffffffffff\n      and\n      0xffffffffffffffffffffffffffffffffffffffff\n      and\n      dup2\n      mstore\n      0x20\n      add\n      swap1\n      dup2\n      mstore\n      0x20\n      add\n      0x00\n      keccak256\n        /* \"contract/Ballot.sol\":2588:2612  voters[msg.sender].voted */\n      0x00\n      add\n      0x00\n        /* \"contract/Ballot.sol\":2588:2619  voters[msg.sender].voted = true */\n      0x0100\n      exp\n      dup2\n      sload\n      dup2\n      0xff\n      mul\n      not\n      and\n      swap1\n      dup4\n      iszero\n      iszero\n      mul\n      or\n      swap1\n      sstore\n      pop\n        /* \"contract/Ballot.sol\":2656:2670  candidateIndex */\n      dup1\n        /* \"contract/Ballot.sol\":2630:2636  voters */\n      0x00\n        /* \"contract/Ballot.sol\":2630:2648  voters[msg.sender] */\n      dup1\n        /* \"contract/Ballot.sol\":2637:2647  msg.sender */\n      caller\n        /* \"contract/Ballot.sol\":2630:2648  voters[msg.sender] */\n      0xffffffffffffffffffffffffffffffffffffffff\n      and\n      0xffffffffffffffffffffffffffffffffffffffff\n      and\n      dup2\n      mstore\n      0x20\n      add\n      swap1\n      dup2\n      mstore\n      0x20\n      add\n      0x00\n      keccak256\n        /* \"contract/Ballot.sol\":2630:2653  voters[msg.sender].vote */\n      0x01\n      add\n        /* \"contract/Ballot.sol\":2630:2670  voters[msg.sender].vote = candidateIndex */\n      dup2\n      swap1\n      sstore\n      pop\n        /* \"contract/Ballot.sol\":2727:2728  1 */\n      0x01\n        /* \"contract/Ballot.sol\":2681:2691  candidates */\n      dup1\n        /* \"contract/Ballot.sol\":2692:2706  candidateIndex */\n      dup3\n        /* \"contract/Ballot.sol\":2681:2707  candidates[candidateIndex] */\n      dup2\n      sload\n      dup2\n      lt\n      tag_145\n      jumpi\n      tag_146\n      tag_81\n      jump\t// in\n    tag_146:\n    tag_145:\n      swap1\n      0x00\n      mstore\n      keccak256(0x00, 0x20)\n      swap1\n      0x02\n      mul\n      add\n        /* \"contract/Ballot.sol\":2681:2723  candidates[candidateIndex].number_of_votes */\n      0x00\n      add\n      0x00\n        /* \"contract/Ballot.sol\":2681:2728  candidates[candidateIndex].number_of_votes += 1 */\n      dup3\n      dup3\n      sload\n      tag_148\n      swap2\n      swap1\n      tag_91\n      jump\t// in\n    tag_148:\n      swap3\n      pop\n      pop\n      dup2\n      swap1\n      sstore\n      pop\n        /* \"contract/Ballot.sol\":2412:2736  function voteFor(uint candidateIndex) public payable {\r... */\n      pop\n      jump\t// out\n        /* \"contract/Ballot.sol\":228:267  mapping(address => voter) public voters */\n    tag_52:\n      mstore(0x20, 0x00)\n      dup1\n      0x00\n      mstore\n      keccak256(0x00, 0x40)\n      0x00\n      swap2\n      pop\n      swap1\n      pop\n      dup1\n      0x00\n      add\n      0x00\n      swap1\n      sload\n      swap1\n      0x0100\n      exp\n      swap1\n      div\n      0xff\n      and\n      swap1\n      dup1\n      0x01\n      add\n      sload\n      swap1\n      pop\n      dup3\n      jump\t// out\n        /* \"#utility.yul\":24:746   */\n    tag_150:\n        /* \"#utility.yul\":120:125   */\n      0x00\n        /* \"#utility.yul\":145:226   */\n      tag_152\n        /* \"#utility.yul\":161:225   */\n      tag_153\n        /* \"#utility.yul\":218:224   */\n      dup5\n        /* \"#utility.yul\":161:225   */\n      tag_154\n      jump\t// in\n    tag_153:\n        /* \"#utility.yul\":145:226   */\n      tag_155\n      jump\t// in\n    tag_152:\n        /* \"#utility.yul\":136:226   */\n      swap1\n      pop\n        /* \"#utility.yul\":246:251   */\n      dup1\n        /* \"#utility.yul\":275:281   */\n      dup4\n        /* \"#utility.yul\":268:273   */\n      dup3\n        /* \"#utility.yul\":261:282   */\n      mstore\n        /* \"#utility.yul\":309:313   */\n      0x20\n        /* \"#utility.yul\":302:307   */\n      dup3\n        /* \"#utility.yul\":298:314   */\n      add\n        /* \"#utility.yul\":291:314   */\n      swap1\n      pop\n        /* \"#utility.yul\":335:341   */\n      dup3\n        /* \"#utility.yul\":385:388   */\n      dup6\n        /* \"#utility.yul\":377:381   */\n      0x20\n        /* \"#utility.yul\":369:375   */\n      dup7\n        /* \"#utility.yul\":365:382   */\n      mul\n        /* \"#utility.yul\":360:363   */\n      dup3\n        /* \"#utility.yul\":356:383   */\n      add\n        /* \"#utility.yul\":353:389   */\n      gt\n        /* \"#utility.yul\":350:493   */\n      iszero\n      tag_156\n      jumpi\n        /* \"#utility.yul\":404:483   */\n      tag_157\n      tag_158\n      jump\t// in\n    tag_157:\n        /* \"#utility.yul\":350:493   */\n    tag_156:\n        /* \"#utility.yul\":517:518   */\n      0x00\n        /* \"#utility.yul\":502:740   */\n    tag_159:\n        /* \"#utility.yul\":527:533   */\n      dup6\n        /* \"#utility.yul\":524:525   */\n      dup2\n        /* \"#utility.yul\":521:534   */\n      lt\n        /* \"#utility.yul\":502:740   */\n      iszero\n      tag_161\n      jumpi\n        /* \"#utility.yul\":595:598   */\n      dup2\n        /* \"#utility.yul\":624:661   */\n      tag_162\n        /* \"#utility.yul\":657:660   */\n      dup9\n        /* \"#utility.yul\":645:655   */\n      dup3\n        /* \"#utility.yul\":624:661   */\n      tag_163\n      jump\t// in\n    tag_162:\n        /* \"#utility.yul\":619:622   */\n      dup5\n        /* \"#utility.yul\":612:662   */\n      mstore\n        /* \"#utility.yul\":691:695   */\n      0x20\n        /* \"#utility.yul\":686:689   */\n      dup5\n        /* \"#utility.yul\":682:696   */\n      add\n        /* \"#utility.yul\":675:696   */\n      swap4\n      pop\n        /* \"#utility.yul\":725:729   */\n      0x20\n        /* \"#utility.yul\":720:723   */\n      dup4\n        /* \"#utility.yul\":716:730   */\n      add\n        /* \"#utility.yul\":709:730   */\n      swap3\n      pop\n        /* \"#utility.yul\":562:740   */\n      pop\n        /* \"#utility.yul\":549:550   */\n      0x01\n        /* \"#utility.yul\":546:547   */\n      dup2\n        /* \"#utility.yul\":542:551   */\n      add\n        /* \"#utility.yul\":537:551   */\n      swap1\n      pop\n        /* \"#utility.yul\":502:740   */\n      jump(tag_159)\n    tag_161:\n        /* \"#utility.yul\":506:520   */\n      pop\n        /* \"#utility.yul\":126:746   */\n      pop\n      pop\n        /* \"#utility.yul\":24:746   */\n      swap4\n      swap3\n      pop\n      pop\n      pop\n      jump\t// out\n        /* \"#utility.yul\":752:891   */\n    tag_163:\n        /* \"#utility.yul\":798:803   */\n      0x00\n        /* \"#utility.yul\":836:842   */\n      dup2\n        /* \"#utility.yul\":823:843   */\n      calldataload\n        /* \"#utility.yul\":814:843   */\n      swap1\n      pop\n        /* \"#utility.yul\":852:885   */\n      tag_165\n        /* \"#utility.yul\":879:884   */\n      dup2\n        /* \"#utility.yul\":852:885   */\n      tag_166\n      jump\t// in\n    tag_165:\n        /* \"#utility.yul\":752:891   */\n      swap3\n      swap2\n      pop\n      pop\n      jump\t// out\n        /* \"#utility.yul\":914:1284   */\n    tag_167:\n        /* \"#utility.yul\":985:990   */\n      0x00\n        /* \"#utility.yul\":1034:1037   */\n      dup3\n        /* \"#utility.yul\":1027:1031   */\n      0x1f\n        /* \"#utility.yul\":1019:1025   */\n      dup4\n        /* \"#utility.yul\":1015:1032   */\n      add\n        /* \"#utility.yul\":1011:1038   */\n      slt\n        /* \"#utility.yul\":1001:1123   */\n      tag_169\n      jumpi\n        /* \"#utility.yul\":1042:1121   */\n      tag_170\n      tag_171\n      jump\t// in\n    tag_170:\n        /* \"#utility.yul\":1001:1123   */\n    tag_169:\n        /* \"#utility.yul\":1159:1165   */\n      dup2\n        /* \"#utility.yul\":1146:1166   */\n      calldataload\n        /* \"#utility.yul\":1184:1278   */\n      tag_172\n        /* \"#utility.yul\":1274:1277   */\n      dup5\n        /* \"#utility.yul\":1266:1272   */\n      dup3\n        /* \"#utility.yul\":1259:1263   */\n      0x20\n        /* \"#utility.yul\":1251:1257   */\n      dup7\n        /* \"#utility.yul\":1247:1264   */\n      add\n        /* \"#utility.yul\":1184:1278   */\n      tag_150\n      jump\t// in\n    tag_172:\n        /* \"#utility.yul\":1175:1278   */\n      swap2\n      pop\n        /* \"#utility.yul\":991:1284   */\n      pop\n        /* \"#utility.yul\":914:1284   */\n      swap3\n      swap2\n      pop\n      pop\n      jump\t// out\n        /* \"#utility.yul\":1290:1429   */\n    tag_173:\n        /* \"#utility.yul\":1336:1341   */\n      0x00\n        /* \"#utility.yul\":1374:1380   */\n      dup2\n        /* \"#utility.yul\":1361:1381   */\n      calldataload\n        /* \"#utility.yul\":1352:1381   */\n      swap1\n      pop\n        /* \"#utility.yul\":1390:1423   */\n      tag_175\n        /* \"#utility.yul\":1417:1422   */\n      dup2\n        /* \"#utility.yul\":1390:1423   */\n      tag_176\n      jump\t// in\n    tag_175:\n        /* \"#utility.yul\":1290:1429   */\n      swap3\n      swap2\n      pop\n      pop\n      jump\t// out\n        /* \"#utility.yul\":1435:1764   */\n    tag_51:\n        /* \"#utility.yul\":1494:1500   */\n      0x00\n        /* \"#utility.yul\":1543:1545   */\n      0x20\n        /* \"#utility.yul\":1531:1540   */\n      dup3\n        /* \"#utility.yul\":1522:1529   */\n      dup5\n        /* \"#utility.yul\":1518:1541   */\n      sub\n        /* \"#utility.yul\":1514:1546   */\n      slt\n        /* \"#utility.yul\":1511:1630   */\n      iszero\n      tag_178\n      jumpi\n        /* \"#utility.yul\":1549:1628   */\n      tag_179\n      tag_180\n      jump\t// in\n    tag_179:\n        /* \"#utility.yul\":1511:1630   */\n    tag_178:\n        /* \"#utility.yul\":1669:1670   */\n      0x00\n        /* \"#utility.yul\":1694:1747   */\n      tag_181\n        /* \"#utility.yul\":1739:1746   */\n      dup5\n        /* \"#utility.yul\":1730:1736   */\n      dup3\n        /* \"#utility.yul\":1719:1728   */\n      dup6\n        /* \"#utility.yul\":1715:1737   */\n      add\n        /* \"#utility.yul\":1694:1747   */\n      tag_163\n      jump\t// in\n    tag_181:\n        /* \"#utility.yul\":1684:1747   */\n      swap2\n      pop\n        /* \"#utility.yul\":1640:1757   */\n      pop\n        /* \"#utility.yul\":1435:1764   */\n      swap3\n      swap2\n      pop\n      pop\n      jump\t// out\n        /* \"#utility.yul\":1770:2099   */\n    tag_15:\n        /* \"#utility.yul\":1829:1835   */\n      0x00\n        /* \"#utility.yul\":1878:1880   */\n      0x20\n        /* \"#utility.yul\":1866:1875   */\n      dup3\n        /* \"#utility.yul\":1857:1864   */\n      dup5\n        /* \"#utility.yul\":1853:1876   */\n      sub\n        /* \"#utility.yul\":1849:1881   */\n      slt\n        /* \"#utility.yul\":1846:1965   */\n      iszero\n      tag_183\n      jumpi\n        /* \"#utility.yul\":1884:1963   */\n      tag_184\n      tag_180\n      jump\t// in\n    tag_184:\n        /* \"#utility.yul\":1846:1965   */\n    tag_183:\n        /* \"#utility.yul\":2004:2005   */\n      0x00\n        /* \"#utility.yul\":2029:2082   */\n      tag_185\n        /* \"#utility.yul\":2074:2081   */\n      dup5\n        /* \"#utility.yul\":2065:2071   */\n      dup3\n        /* \"#utility.yul\":2054:2063   */\n      dup6\n        /* \"#utility.yul\":2050:2072   */\n      add\n        /* \"#utility.yul\":2029:2082   */\n      tag_173\n      jump\t// in\n    tag_185:\n        /* \"#utility.yul\":2019:2082   */\n      swap2\n      pop\n        /* \"#utility.yul\":1975:2092   */\n      pop\n        /* \"#utility.yul\":1770:2099   */\n      swap3\n      swap2\n      pop\n      pop\n      jump\t// out\n        /* \"#utility.yul\":2105:3080   */\n    tag_43:\n        /* \"#utility.yul\":2216:2222   */\n      0x00\n        /* \"#utility.yul\":2224:2230   */\n      dup1\n        /* \"#utility.yul\":2232:2238   */\n      0x00\n        /* \"#utility.yul\":2240:2246   */\n      dup1\n        /* \"#utility.yul\":2289:2292   */\n      0x80\n        /* \"#utility.yul\":2277:2286   */\n      dup6\n        /* \"#utility.yul\":2268:2275   */\n      dup8\n        /* \"#utility.yul\":2264:2287   */\n      sub\n        /* \"#utility.yul\":2260:2293   */\n      slt\n        /* \"#utility.yul\":2257:2377   */\n      iszero\n      tag_187\n      jumpi\n        /* \"#utility.yul\":2296:2375   */\n      tag_188\n      tag_180\n      jump\t// in\n    tag_188:\n        /* \"#utility.yul\":2257:2377   */\n    tag_187:\n        /* \"#utility.yul\":2416:2417   */\n      0x00\n        /* \"#utility.yul\":2441:2494   */\n      tag_189\n        /* \"#utility.yul\":2486:2493   */\n      dup8\n        /* \"#utility.yul\":2477:2483   */\n      dup3\n        /* \"#utility.yul\":2466:2475   */\n      dup9\n        /* \"#utility.yul\":2462:2484   */\n      add\n        /* \"#utility.yul\":2441:2494   */\n      tag_173\n      jump\t// in\n    tag_189:\n        /* \"#utility.yul\":2431:2494   */\n      swap5\n      pop\n        /* \"#utility.yul\":2387:2504   */\n      pop\n        /* \"#utility.yul\":2543:2545   */\n      0x20\n        /* \"#utility.yul\":2569:2622   */\n      tag_190\n        /* \"#utility.yul\":2614:2621   */\n      dup8\n        /* \"#utility.yul\":2605:2611   */\n      dup3\n        /* \"#utility.yul\":2594:2603   */\n      dup9\n        /* \"#utility.yul\":2590:2612   */\n      add\n        /* \"#utility.yul\":2569:2622   */\n      tag_173\n      jump\t// in\n    tag_190:\n        /* \"#utility.yul\":2559:2622   */\n      swap4\n      pop\n        /* \"#utility.yul\":2514:2632   */\n      pop\n        /* \"#utility.yul\":2671:2673   */\n      0x40\n        /* \"#utility.yul\":2697:2750   */\n      tag_191\n        /* \"#utility.yul\":2742:2749   */\n      dup8\n        /* \"#utility.yul\":2733:2739   */\n      dup3\n        /* \"#utility.yul\":2722:2731   */\n      dup9\n        /* \"#utility.yul\":2718:2740   */\n      add\n        /* \"#utility.yul\":2697:2750   */\n      tag_173\n      jump\t// in\n    tag_191:\n        /* \"#utility.yul\":2687:2750   */\n      swap3\n      pop\n        /* \"#utility.yul\":2642:2760   */\n      pop\n        /* \"#utility.yul\":2827:2829   */\n      0x60\n        /* \"#utility.yul\":2816:2825   */\n      dup6\n        /* \"#utility.yul\":2812:2830   */\n      add\n        /* \"#utility.yul\":2799:2831   */\n      calldataload\n        /* \"#utility.yul\":2858:2876   */\n      0xffffffffffffffff\n        /* \"#utility.yul\":2850:2856   */\n      dup2\n        /* \"#utility.yul\":2847:2877   */\n      gt\n        /* \"#utility.yul\":2844:2961   */\n      iszero\n      tag_192\n      jumpi\n        /* \"#utility.yul\":2880:2959   */\n      tag_193\n      tag_194\n      jump\t// in\n    tag_193:\n        /* \"#utility.yul\":2844:2961   */\n    tag_192:\n        /* \"#utility.yul\":2985:3063   */\n      tag_195\n        /* \"#utility.yul\":3055:3062   */\n      dup8\n        /* \"#utility.yul\":3046:3052   */\n      dup3\n        /* \"#utility.yul\":3035:3044   */\n      dup9\n        /* \"#utility.yul\":3031:3053   */\n      add\n        /* \"#utility.yul\":2985:3063   */\n      tag_167\n      jump\t// in\n    tag_195:\n        /* \"#utility.yul\":2975:3063   */\n      swap2\n      pop\n        /* \"#utility.yul\":2770:3073   */\n      pop\n        /* \"#utility.yul\":2105:3080   */\n      swap3\n      swap6\n      swap2\n      swap5\n      pop\n      swap3\n      pop\n      jump\t// out\n        /* \"#utility.yul\":3086:3228   */\n    tag_196:\n        /* \"#utility.yul\":3189:3221   */\n      tag_198\n        /* \"#utility.yul\":3215:3220   */\n      dup2\n        /* \"#utility.yul\":3189:3221   */\n      tag_199\n      jump\t// in\n    tag_198:\n        /* \"#utility.yul\":3184:3187   */\n      dup3\n        /* \"#utility.yul\":3177:3222   */\n      mstore\n        /* \"#utility.yul\":3086:3228   */\n      pop\n      pop\n      jump\t// out\n        /* \"#utility.yul\":3234:3352   */\n    tag_200:\n        /* \"#utility.yul\":3321:3345   */\n      tag_202\n        /* \"#utility.yul\":3339:3344   */\n      dup2\n        /* \"#utility.yul\":3321:3345   */\n      tag_203\n      jump\t// in\n    tag_202:\n        /* \"#utility.yul\":3316:3319   */\n      dup3\n        /* \"#utility.yul\":3309:3346   */\n      mstore\n        /* \"#utility.yul\":3234:3352   */\n      pop\n      pop\n      jump\t// out\n        /* \"#utility.yul\":3358:3467   */\n    tag_204:\n        /* \"#utility.yul\":3439:3460   */\n      tag_206\n        /* \"#utility.yul\":3454:3459   */\n      dup2\n        /* \"#utility.yul\":3439:3460   */\n      tag_207\n      jump\t// in\n    tag_206:\n        /* \"#utility.yul\":3434:3437   */\n      dup3\n        /* \"#utility.yul\":3427:3461   */\n      mstore\n        /* \"#utility.yul\":3358:3467   */\n      pop\n      pop\n      jump\t// out\n        /* \"#utility.yul\":3473:3839   */\n    tag_208:\n        /* \"#utility.yul\":3615:3618   */\n      0x00\n        /* \"#utility.yul\":3636:3703   */\n      tag_210\n        /* \"#utility.yul\":3700:3702   */\n      0x0e\n        /* \"#utility.yul\":3695:3698   */\n      dup4\n        /* \"#utility.yul\":3636:3703   */\n      tag_211\n      jump\t// in\n    tag_210:\n        /* \"#utility.yul\":3629:3703   */\n      swap2\n      pop\n        /* \"#utility.yul\":3712:3805   */\n      tag_212\n        /* \"#utility.yul\":3801:3804   */\n      dup3\n        /* \"#utility.yul\":3712:3805   */\n      tag_213\n      jump\t// in\n    tag_212:\n        /* \"#utility.yul\":3830:3832   */\n      0x20\n        /* \"#utility.yul\":3825:3828   */\n      dup3\n        /* \"#utility.yul\":3821:3833   */\n      add\n        /* \"#utility.yul\":3814:3833   */\n      swap1\n      pop\n        /* \"#utility.yul\":3473:3839   */\n      swap2\n      swap1\n      pop\n      jump\t// out\n        /* \"#utility.yul\":3845:4211   */\n    tag_214:\n        /* \"#utility.yul\":3987:3990   */\n      0x00\n        /* \"#utility.yul\":4008:4075   */\n      tag_216\n        /* \"#utility.yul\":4072:4074   */\n      0x19\n        /* \"#utility.yul\":4067:4070   */\n      dup4\n        /* \"#utility.yul\":4008:4075   */\n      tag_211\n      jump\t// in\n    tag_216:\n        /* \"#utility.yul\":4001:4075   */\n      swap2\n      pop\n        /* \"#utility.yul\":4084:4177   */\n      tag_217\n        /* \"#utility.yul\":4173:4176   */\n      dup3\n        /* \"#utility.yul\":4084:4177   */\n      tag_218\n      jump\t// in\n    tag_217:\n        /* \"#utility.yul\":4202:4204   */\n      0x20\n        /* \"#utility.yul\":4197:4200   */\n      dup3\n        /* \"#utility.yul\":4193:4205   */\n      add\n        /* \"#utility.yul\":4186:4205   */\n      swap1\n      pop\n        /* \"#utility.yul\":3845:4211   */\n      swap2\n      swap1\n      pop\n      jump\t// out\n        /* \"#utility.yul\":4217:4583   */\n    tag_219:\n        /* \"#utility.yul\":4359:4362   */\n      0x00\n        /* \"#utility.yul\":4380:4447   */\n      tag_221\n        /* \"#utility.yul\":4444:4446   */\n      0x12\n        /* \"#utility.yul\":4439:4442   */\n      dup4\n        /* \"#utility.yul\":4380:4447   */\n      tag_211\n      jump\t// in\n    tag_221:\n        /* \"#utility.yul\":4373:4447   */\n      swap2\n      pop\n        /* \"#utility.yul\":4456:4549   */\n      tag_222\n        /* \"#utility.yul\":4545:4548   */\n      dup3\n        /* \"#utility.yul\":4456:4549   */\n      tag_223\n      jump\t// in\n    tag_222:\n        /* \"#utility.yul\":4574:4576   */\n      0x20\n        /* \"#utility.yul\":4569:4572   */\n      dup3\n        /* \"#utility.yul\":4565:4577   */\n      add\n        /* \"#utility.yul\":4558:4577   */\n      swap1\n      pop\n        /* \"#utility.yul\":4217:4583   */\n      swap2\n      swap1\n      pop\n      jump\t// out\n        /* \"#utility.yul\":4589:4955   */\n    tag_224:\n        /* \"#utility.yul\":4731:4734   */\n      0x00\n        /* \"#utility.yul\":4752:4819   */\n      tag_226\n        /* \"#utility.yul\":4816:4818   */\n      0x0d\n        /* \"#utility.yul\":4811:4814   */\n      dup4\n        /* \"#utility.yul\":4752:4819   */\n      tag_211\n      jump\t// in\n    tag_226:\n        /* \"#utility.yul\":4745:4819   */\n      swap2\n      pop\n        /* \"#utility.yul\":4828:4921   */\n      tag_227\n        /* \"#utility.yul\":4917:4920   */\n      dup3\n        /* \"#utility.yul\":4828:4921   */\n      tag_228\n      jump\t// in\n    tag_227:\n        /* \"#utility.yul\":4946:4948   */\n      0x20\n        /* \"#utility.yul\":4941:4944   */\n      dup3\n        /* \"#utility.yul\":4937:4949   */\n      add\n        /* \"#utility.yul\":4930:4949   */\n      swap1\n      pop\n        /* \"#utility.yul\":4589:4955   */\n      swap2\n      swap1\n      pop\n      jump\t// out\n        /* \"#utility.yul\":4961:5327   */\n    tag_229:\n        /* \"#utility.yul\":5103:5106   */\n      0x00\n        /* \"#utility.yul\":5124:5191   */\n      tag_231\n        /* \"#utility.yul\":5188:5190   */\n      0x18\n        /* \"#utility.yul\":5183:5186   */\n      dup4\n        /* \"#utility.yul\":5124:5191   */\n      tag_211\n      jump\t// in\n    tag_231:\n        /* \"#utility.yul\":5117:5191   */\n      swap2\n      pop\n        /* \"#utility.yul\":5200:5293   */\n      tag_232\n        /* \"#utility.yul\":5289:5292   */\n      dup3\n        /* \"#utility.yul\":5200:5293   */\n      tag_233\n      jump\t// in\n    tag_232:\n        /* \"#utility.yul\":5318:5320   */\n      0x20\n        /* \"#utility.yul\":5313:5316   */\n      dup3\n        /* \"#utility.yul\":5309:5321   */\n      add\n        /* \"#utility.yul\":5302:5321   */\n      swap1\n      pop\n        /* \"#utility.yul\":4961:5327   */\n      swap2\n      swap1\n      pop\n      jump\t// out\n        /* \"#utility.yul\":5333:5451   */\n    tag_234:\n        /* \"#utility.yul\":5420:5444   */\n      tag_236\n        /* \"#utility.yul\":5438:5443   */\n      dup2\n        /* \"#utility.yul\":5420:5444   */\n      tag_237\n      jump\t// in\n    tag_236:\n        /* \"#utility.yul\":5415:5418   */\n      dup3\n        /* \"#utility.yul\":5408:5445   */\n      mstore\n        /* \"#utility.yul\":5333:5451   */\n      pop\n      pop\n      jump\t// out\n        /* \"#utility.yul\":5457:5679   */\n    tag_39:\n        /* \"#utility.yul\":5550:5554   */\n      0x00\n        /* \"#utility.yul\":5588:5590   */\n      0x20\n        /* \"#utility.yul\":5577:5586   */\n      dup3\n        /* \"#utility.yul\":5573:5591   */\n      add\n        /* \"#utility.yul\":5565:5591   */\n      swap1\n      pop\n        /* \"#utility.yul\":5601:5672   */\n      tag_239\n        /* \"#utility.yul\":5669:5670   */\n      0x00\n        /* \"#utility.yul\":5658:5667   */\n      dup4\n        /* \"#utility.yul\":5654:5671   */\n      add\n        /* \"#utility.yul\":5645:5651   */\n      dup5\n        /* \"#utility.yul\":5601:5672   */\n      tag_200\n      jump\t// in\n    tag_239:\n        /* \"#utility.yul\":5457:5679   */\n      swap3\n      swap2\n      pop\n      pop\n      jump\t// out\n        /* \"#utility.yul\":5685:6005   */\n    tag_54:\n        /* \"#utility.yul\":5800:5804   */\n      0x00\n        /* \"#utility.yul\":5838:5840   */\n      0x40\n        /* \"#utility.yul\":5827:5836   */\n      dup3\n        /* \"#utility.yul\":5823:5841   */\n      add\n        /* \"#utility.yul\":5815:5841   */\n      swap1\n      pop\n        /* \"#utility.yul\":5851:5916   */\n      tag_241\n        /* \"#utility.yul\":5913:5914   */\n      0x00\n        /* \"#utility.yul\":5902:5911   */\n      dup4\n        /* \"#utility.yul\":5898:5915   */\n      add\n        /* \"#utility.yul\":5889:5895   */\n      dup6\n        /* \"#utility.yul\":5851:5916   */\n      tag_204\n      jump\t// in\n    tag_241:\n        /* \"#utility.yul\":5926:5998   */\n      tag_242\n        /* \"#utility.yul\":5994:5996   */\n      0x20\n        /* \"#utility.yul\":5983:5992   */\n      dup4\n        /* \"#utility.yul\":5979:5997   */\n      add\n        /* \"#utility.yul\":5970:5976   */\n      dup5\n        /* \"#utility.yul\":5926:5998   */\n      tag_234\n      jump\t// in\n    tag_242:\n        /* \"#utility.yul\":5685:6005   */\n      swap4\n      swap3\n      pop\n      pop\n      pop\n      jump\t// out\n        /* \"#utility.yul\":6011:6430   */\n    tag_58:\n        /* \"#utility.yul\":6177:6181   */\n      0x00\n        /* \"#utility.yul\":6215:6217   */\n      0x20\n        /* \"#utility.yul\":6204:6213   */\n      dup3\n        /* \"#utility.yul\":6200:6218   */\n      add\n        /* \"#utility.yul\":6192:6218   */\n      swap1\n      pop\n        /* \"#utility.yul\":6264:6273   */\n      dup2\n        /* \"#utility.yul\":6258:6262   */\n      dup2\n        /* \"#utility.yul\":6254:6274   */\n      sub\n        /* \"#utility.yul\":6250:6251   */\n      0x00\n        /* \"#utility.yul\":6239:6248   */\n      dup4\n        /* \"#utility.yul\":6235:6252   */\n      add\n        /* \"#utility.yul\":6228:6275   */\n      mstore\n        /* \"#utility.yul\":6292:6423   */\n      tag_244\n        /* \"#utility.yul\":6418:6422   */\n      dup2\n        /* \"#utility.yul\":6292:6423   */\n      tag_208\n      jump\t// in\n    tag_244:\n        /* \"#utility.yul\":6284:6423   */\n      swap1\n      pop\n        /* \"#utility.yul\":6011:6430   */\n      swap2\n      swap1\n      pop\n      jump\t// out\n        /* \"#utility.yul\":6436:6855   */\n    tag_130:\n        /* \"#utility.yul\":6602:6606   */\n      0x00\n        /* \"#utility.yul\":6640:6642   */\n      0x20\n        /* \"#utility.yul\":6629:6638   */\n      dup3\n        /* \"#utility.yul\":6625:6643   */\n      add\n        /* \"#utility.yul\":6617:6643   */\n      swap1\n      pop\n        /* \"#utility.yul\":6689:6698   */\n      dup2\n        /* \"#utility.yul\":6683:6687   */\n      dup2\n        /* \"#utility.yul\":6679:6699   */\n      sub\n        /* \"#utility.yul\":6675:6676   */\n      0x00\n        /* \"#utility.yul\":6664:6673   */\n      dup4\n        /* \"#utility.yul\":6660:6677   */\n      add\n        /* \"#utility.yul\":6653:6700   */\n      mstore\n        /* \"#utility.yul\":6717:6848   */\n      tag_246\n        /* \"#utility.yul\":6843:6847   */\n      dup2\n        /* \"#utility.yul\":6717:6848   */\n      tag_214\n      jump\t// in\n    tag_246:\n        /* \"#utility.yul\":6709:6848   */\n      swap1\n      pop\n        /* \"#utility.yul\":6436:6855   */\n      swap2\n      swap1\n      pop\n      jump\t// out\n        /* \"#utility.yul\":6861:7280   */\n    tag_127:\n        /* \"#utility.yul\":7027:7031   */\n      0x00\n        /* \"#utility.yul\":7065:7067   */\n      0x20\n        /* \"#utility.yul\":7054:7063   */\n      dup3\n        /* \"#utility.yul\":7050:7068   */\n      add\n        /* \"#utility.yul\":7042:7068   */\n      swap1\n      pop\n        /* \"#utility.yul\":7114:7123   */\n      dup2\n        /* \"#utility.yul\":7108:7112   */\n      dup2\n        /* \"#utility.yul\":7104:7124   */\n      sub\n        /* \"#utility.yul\":7100:7101   */\n      0x00\n        /* \"#utility.yul\":7089:7098   */\n      dup4\n        /* \"#utility.yul\":7085:7102   */\n      add\n        /* \"#utility.yul\":7078:7125   */\n      mstore\n        /* \"#utility.yul\":7142:7273   */\n      tag_248\n        /* \"#utility.yul\":7268:7272   */\n      dup2\n        /* \"#utility.yul\":7142:7273   */\n      tag_219\n      jump\t// in\n    tag_248:\n        /* \"#utility.yul\":7134:7273   */\n      swap1\n      pop\n        /* \"#utility.yul\":6861:7280   */\n      swap2\n      swap1\n      pop\n      jump\t// out\n        /* \"#utility.yul\":7286:7705   */\n    tag_62:\n        /* \"#utility.yul\":7452:7456   */\n      0x00\n        /* \"#utility.yul\":7490:7492   */\n      0x20\n        /* \"#utility.yul\":7479:7488   */\n      dup3\n        /* \"#utility.yul\":7475:7493   */\n      add\n        /* \"#utility.yul\":7467:7493   */\n      swap1\n      pop\n        /* \"#utility.yul\":7539:7548   */\n      dup2\n        /* \"#utility.yul\":7533:7537   */\n      dup2\n        /* \"#utility.yul\":7529:7549   */\n      sub\n        /* \"#utility.yul\":7525:7526   */\n      0x00\n        /* \"#utility.yul\":7514:7523   */\n      dup4\n        /* \"#utility.yul\":7510:7527   */\n      add\n        /* \"#utility.yul\":7503:7550   */\n      mstore\n        /* \"#utility.yul\":7567:7698   */\n      tag_250\n        /* \"#utility.yul\":7693:7697   */\n      dup2\n        /* \"#utility.yul\":7567:7698   */\n      tag_224\n      jump\t// in\n    tag_250:\n        /* \"#utility.yul\":7559:7698   */\n      swap1\n      pop\n        /* \"#utility.yul\":7286:7705   */\n      swap2\n      swap1\n      pop\n      jump\t// out\n        /* \"#utility.yul\":7711:8130   */\n    tag_144:\n        /* \"#utility.yul\":7877:7881   */\n      0x00\n        /* \"#utility.yul\":7915:7917   */\n      0x20\n        /* \"#utility.yul\":7904:7913   */\n      dup3\n        /* \"#utility.yul\":7900:7918   */\n      add\n        /* \"#utility.yul\":7892:7918   */\n      swap1\n      pop\n        /* \"#utility.yul\":7964:7973   */\n      dup2\n        /* \"#utility.yul\":7958:7962   */\n      dup2\n        /* \"#utility.yul\":7954:7974   */\n      sub\n        /* \"#utility.yul\":7950:7951   */\n      0x00\n        /* \"#utility.yul\":7939:7948   */\n      dup4\n        /* \"#utility.yul\":7935:7952   */\n      add\n        /* \"#utility.yul\":7928:7975   */\n      mstore\n        /* \"#utility.yul\":7992:8123   */\n      tag_252\n        /* \"#utility.yul\":8118:8122   */\n      dup2\n        /* \"#utility.yul\":7992:8123   */\n      tag_229\n      jump\t// in\n    tag_252:\n        /* \"#utility.yul\":7984:8123   */\n      swap1\n      pop\n        /* \"#utility.yul\":7711:8130   */\n      swap2\n      swap1\n      pop\n      jump\t// out\n        /* \"#utility.yul\":8136:8500   */\n    tag_31:\n        /* \"#utility.yul\":8273:8277   */\n      0x00\n        /* \"#utility.yul\":8311:8313   */\n      0x40\n        /* \"#utility.yul\":8300:8309   */\n      dup3\n        /* \"#utility.yul\":8296:8314   */\n      add\n        /* \"#utility.yul\":8288:8314   */\n      swap1\n      pop\n        /* \"#utility.yul\":8324:8395   */\n      tag_254\n        /* \"#utility.yul\":8392:8393   */\n      0x00\n        /* \"#utility.yul\":8381:8390   */\n      dup4\n        /* \"#utility.yul\":8377:8394   */\n      add\n        /* \"#utility.yul\":8368:8374   */\n      dup6\n        /* \"#utility.yul\":8324:8395   */\n      tag_234\n      jump\t// in\n    tag_254:\n        /* \"#utility.yul\":8405:8493   */\n      tag_255\n        /* \"#utility.yul\":8489:8491   */\n      0x20\n        /* \"#utility.yul\":8478:8487   */\n      dup4\n        /* \"#utility.yul\":8474:8492   */\n      add\n        /* \"#utility.yul\":8465:8471   */\n      dup5\n        /* \"#utility.yul\":8405:8493   */\n      tag_196\n      jump\t// in\n    tag_255:\n        /* \"#utility.yul\":8136:8500   */\n      swap4\n      swap3\n      pop\n      pop\n      pop\n      jump\t// out\n        /* \"#utility.yul\":8506:8948   */\n    tag_25:\n        /* \"#utility.yul\":8655:8659   */\n      0x00\n        /* \"#utility.yul\":8693:8695   */\n      0x60\n        /* \"#utility.yul\":8682:8691   */\n      dup3\n        /* \"#utility.yul\":8678:8696   */\n      add\n        /* \"#utility.yul\":8670:8696   */\n      swap1\n      pop\n        /* \"#utility.yul\":8706:8777   */\n      tag_257\n        /* \"#utility.yul\":8774:8775   */\n      0x00\n        /* \"#utility.yul\":8763:8772   */\n      dup4\n        /* \"#utility.yul\":8759:8776   */\n      add\n        /* \"#utility.yul\":8750:8756   */\n      dup7\n        /* \"#utility.yul\":8706:8777   */\n      tag_234\n      jump\t// in\n    tag_257:\n        /* \"#utility.yul\":8787:8859   */\n      tag_258\n        /* \"#utility.yul\":8855:8857   */\n      0x20\n        /* \"#utility.yul\":8844:8853   */\n      dup4\n        /* \"#utility.yul\":8840:8858   */\n      add\n        /* \"#utility.yul\":8831:8837   */\n      dup6\n        /* \"#utility.yul\":8787:8859   */\n      tag_234\n      jump\t// in\n    tag_258:\n        /* \"#utility.yul\":8869:8941   */\n      tag_259\n        /* \"#utility.yul\":8937:8939   */\n      0x40\n        /* \"#utility.yul\":8926:8935   */\n      dup4\n        /* \"#utility.yul\":8922:8940   */\n      add\n        /* \"#utility.yul\":8913:8919   */\n      dup5\n        /* \"#utility.yul\":8869:8941   */\n      tag_234\n      jump\t// in\n    tag_259:\n        /* \"#utility.yul\":8506:8948   */\n      swap5\n      swap4\n      pop\n      pop\n      pop\n      pop\n      jump\t// out\n        /* \"#utility.yul\":8954:9083   */\n    tag_155:\n        /* \"#utility.yul\":8988:8994   */\n      0x00\n        /* \"#utility.yul\":9015:9035   */\n      tag_261\n      tag_262\n      jump\t// in\n    tag_261:\n        /* \"#utility.yul\":9005:9035   */\n      swap1\n      pop\n        /* \"#utility.yul\":9044:9077   */\n      tag_263\n        /* \"#utility.yul\":9072:9076   */\n      dup3\n        /* \"#utility.yul\":9064:9070   */\n      dup3\n        /* \"#utility.yul\":9044:9077   */\n      tag_264\n      jump\t// in\n    tag_263:\n        /* \"#utility.yul\":8954:9083   */\n      swap2\n      swap1\n      pop\n      jump\t// out\n        /* \"#utility.yul\":9089:9164   */\n    tag_262:\n        /* \"#utility.yul\":9122:9128   */\n      0x00\n        /* \"#utility.yul\":9155:9157   */\n      0x40\n        /* \"#utility.yul\":9149:9158   */\n      mload\n        /* \"#utility.yul\":9139:9158   */\n      swap1\n      pop\n        /* \"#utility.yul\":9089:9164   */\n      swap1\n      jump\t// out\n        /* \"#utility.yul\":9170:9481   */\n    tag_154:\n        /* \"#utility.yul\":9247:9251   */\n      0x00\n        /* \"#utility.yul\":9337:9355   */\n      0xffffffffffffffff\n        /* \"#utility.yul\":9329:9335   */\n      dup3\n        /* \"#utility.yul\":9326:9356   */\n      gt\n        /* \"#utility.yul\":9323:9379   */\n      iszero\n      tag_267\n      jumpi\n        /* \"#utility.yul\":9359:9377   */\n      tag_268\n      tag_269\n      jump\t// in\n    tag_268:\n        /* \"#utility.yul\":9323:9379   */\n    tag_267:\n        /* \"#utility.yul\":9409:9413   */\n      0x20\n        /* \"#utility.yul\":9401:9407   */\n      dup3\n        /* \"#utility.yul\":9397:9414   */\n      mul\n        /* \"#utility.yul\":9389:9414   */\n      swap1\n      pop\n        /* \"#utility.yul\":9469:9473   */\n      0x20\n        /* \"#utility.yul\":9463:9467   */\n      dup2\n        /* \"#utility.yul\":9459:9474   */\n      add\n        /* \"#utility.yul\":9451:9474   */\n      swap1\n      pop\n        /* \"#utility.yul\":9170:9481   */\n      swap2\n      swap1\n      pop\n      jump\t// out\n        /* \"#utility.yul\":9487:9656   */\n    tag_211:\n        /* \"#utility.yul\":9571:9582   */\n      0x00\n        /* \"#utility.yul\":9605:9611   */\n      dup3\n        /* \"#utility.yul\":9600:9603   */\n      dup3\n        /* \"#utility.yul\":9593:9612   */\n      mstore\n        /* \"#utility.yul\":9645:9649   */\n      0x20\n        /* \"#utility.yul\":9640:9643   */\n      dup3\n        /* \"#utility.yul\":9636:9650   */\n      add\n        /* \"#utility.yul\":9621:9650   */\n      swap1\n      pop\n        /* \"#utility.yul\":9487:9656   */\n      swap3\n      swap2\n      pop\n      pop\n      jump\t// out\n        /* \"#utility.yul\":9662:9967   */\n    tag_91:\n        /* \"#utility.yul\":9702:9705   */\n      0x00\n        /* \"#utility.yul\":9721:9741   */\n      tag_272\n        /* \"#utility.yul\":9739:9740   */\n      dup3\n        /* \"#utility.yul\":9721:9741   */\n      tag_237\n      jump\t// in\n    tag_272:\n        /* \"#utility.yul\":9716:9741   */\n      swap2\n      pop\n        /* \"#utility.yul\":9755:9775   */\n      tag_273\n        /* \"#utility.yul\":9773:9774   */\n      dup4\n        /* \"#utility.yul\":9755:9775   */\n      tag_237\n      jump\t// in\n    tag_273:\n        /* \"#utility.yul\":9750:9775   */\n      swap3\n      pop\n        /* \"#utility.yul\":9909:9910   */\n      dup3\n        /* \"#utility.yul\":9841:9907   */\n      0xffffffffffffffffffffffffffffffffffffffffffffffffffffffffffffffff\n        /* \"#utility.yul\":9837:9911   */\n      sub\n        /* \"#utility.yul\":9834:9835   */\n      dup3\n        /* \"#utility.yul\":9831:9912   */\n      gt\n        /* \"#utility.yul\":9828:9935   */\n      iszero\n      tag_274\n      jumpi\n        /* \"#utility.yul\":9915:9933   */\n      tag_275\n      tag_276\n      jump\t// in\n    tag_275:\n        /* \"#utility.yul\":9828:9935   */\n    tag_274:\n        /* \"#utility.yul\":9959:9960   */\n      dup3\n        /* \"#utility.yul\":9956:9957   */\n      dup3\n        /* \"#utility.yul\":9952:9961   */\n      add\n        /* \"#utility.yul\":9945:9961   */\n      swap1\n      pop\n        /* \"#utility.yul\":9662:9967   */\n      swap3\n      swap2\n      pop\n      pop\n      jump\t// out\n        /* \"#utility.yul\":9973:10158   */\n    tag_67:\n        /* \"#utility.yul\":10013:10014   */\n      0x00\n        /* \"#utility.yul\":10030:10050   */\n      tag_278\n        /* \"#utility.yul\":10048:10049   */\n      dup3\n        /* \"#utility.yul\":10030:10050   */\n      tag_237\n      jump\t// in\n    tag_278:\n        /* \"#utility.yul\":10025:10050   */\n      swap2\n      pop\n        /* \"#utility.yul\":10064:10084   */\n      tag_279\n        /* \"#utility.yul\":10082:10083   */\n      dup4\n        /* \"#utility.yul\":10064:10084   */\n      tag_237\n      jump\t// in\n    tag_279:\n        /* \"#utility.yul\":10059:10084   */\n      swap3\n      pop\n        /* \"#utility.yul\":10103:10104   */\n      dup3\n        /* \"#utility.yul\":10093:10128   */\n      tag_280\n      jumpi\n        /* \"#utility.yul\":10108:10126   */\n      tag_281\n      tag_282\n      jump\t// in\n    tag_281:\n        /* \"#utility.yul\":10093:10128   */\n    tag_280:\n        /* \"#utility.yul\":10150:10151   */\n      dup3\n        /* \"#utility.yul\":10147:10148   */\n      dup3\n        /* \"#utility.yul\":10143:10152   */\n      div\n        /* \"#utility.yul\":10138:10152   */\n      swap1\n      pop\n        /* \"#utility.yul\":9973:10158   */\n      swap3\n      swap2\n      pop\n      pop\n      jump\t// out\n        /* \"#utility.yul\":10164:10512   */\n    tag_101:\n        /* \"#utility.yul\":10204:10211   */\n      0x00\n        /* \"#utility.yul\":10227:10247   */\n      tag_284\n        /* \"#utility.yul\":10245:10246   */\n      dup3\n        /* \"#utility.yul\":10227:10247   */\n      tag_237\n      jump\t// in\n    tag_284:\n        /* \"#utility.yul\":10222:10247   */\n      swap2\n      pop\n        /* \"#utility.yul\":10261:10281   */\n      tag_285\n        /* \"#utility.yul\":10279:10280   */\n      dup4\n        /* \"#utility.yul\":10261:10281   */\n      tag_237\n      jump\t// in\n    tag_285:\n        /* \"#utility.yul\":10256:10281   */\n      swap3\n      pop\n        /* \"#utility.yul\":10449:10450   */\n      dup2\n        /* \"#utility.yul\":10381:10447   */\n      0xffffffffffffffffffffffffffffffffffffffffffffffffffffffffffffffff\n        /* \"#utility.yul\":10377:10451   */\n      div\n        /* \"#utility.yul\":10374:10375   */\n      dup4\n        /* \"#utility.yul\":10371:10452   */\n      gt\n        /* \"#utility.yul\":10366:10367   */\n      dup3\n        /* \"#utility.yul\":10359:10368   */\n      iszero\n        /* \"#utility.yul\":10352:10369   */\n      iszero\n        /* \"#utility.yul\":10348:10453   */\n      and\n        /* \"#utility.yul\":10345:10476   */\n      iszero\n      tag_286\n      jumpi\n        /* \"#utility.yul\":10456:10474   */\n      tag_287\n      tag_276\n      jump\t// in\n    tag_287:\n        /* \"#utility.yul\":10345:10476   */\n    tag_286:\n        /* \"#utility.yul\":10504:10505   */\n      dup3\n        /* \"#utility.yul\":10501:10502   */\n      dup3\n        /* \"#utility.yul\":10497:10506   */\n      mul\n        /* \"#utility.yul\":10486:10506   */\n      swap1\n      pop\n        /* \"#utility.yul\":10164:10512   */\n      swap3\n      swap2\n      pop\n      pop\n      jump\t// out\n        /* \"#utility.yul\":10518:10709   */\n    tag_65:\n        /* \"#utility.yul\":10558:10562   */\n      0x00\n        /* \"#utility.yul\":10578:10598   */\n      tag_289\n        /* \"#utility.yul\":10596:10597   */\n      dup3\n        /* \"#utility.yul\":10578:10598   */\n      tag_237\n      jump\t// in\n    tag_289:\n        /* \"#utility.yul\":10573:10598   */\n      swap2\n      pop\n        /* \"#utility.yul\":10612:10632   */\n      tag_290\n        /* \"#utility.yul\":10630:10631   */\n      dup4\n        /* \"#utility.yul\":10612:10632   */\n      tag_237\n      jump\t// in\n    tag_290:\n        /* \"#utility.yul\":10607:10632   */\n      swap3\n      pop\n        /* \"#utility.yul\":10651:10652   */\n      dup3\n        /* \"#utility.yul\":10648:10649   */\n      dup3\n        /* \"#utility.yul\":10645:10653   */\n      lt\n        /* \"#utility.yul\":10642:10676   */\n      iszero\n      tag_291\n      jumpi\n        /* \"#utility.yul\":10656:10674   */\n      tag_292\n      tag_276\n      jump\t// in\n    tag_292:\n        /* \"#utility.yul\":10642:10676   */\n    tag_291:\n        /* \"#utility.yul\":10701:10702   */\n      dup3\n        /* \"#utility.yul\":10698:10699   */\n      dup3\n        /* \"#utility.yul\":10694:10703   */\n      sub\n        /* \"#utility.yul\":10686:10703   */\n      swap1\n      pop\n        /* \"#utility.yul\":10518:10709   */\n      swap3\n      swap2\n      pop\n      pop\n      jump\t// out\n        /* \"#utility.yul\":10715:10811   */\n    tag_203:\n        /* \"#utility.yul\":10752:10759   */\n      0x00\n        /* \"#utility.yul\":10781:10805   */\n      tag_294\n        /* \"#utility.yul\":10799:10804   */\n      dup3\n        /* \"#utility.yul\":10781:10805   */\n      tag_295\n      jump\t// in\n    tag_294:\n        /* \"#utility.yul\":10770:10805   */\n      swap1\n      pop\n        /* \"#utility.yul\":10715:10811   */\n      swap2\n      swap1\n      pop\n      jump\t// out\n        /* \"#utility.yul\":10817:10921   */\n    tag_199:\n        /* \"#utility.yul\":10862:10869   */\n      0x00\n        /* \"#utility.yul\":10891:10915   */\n      tag_297\n        /* \"#utility.yul\":10909:10914   */\n      dup3\n        /* \"#utility.yul\":10891:10915   */\n      tag_295\n      jump\t// in\n    tag_297:\n        /* \"#utility.yul\":10880:10915   */\n      swap1\n      pop\n        /* \"#utility.yul\":10817:10921   */\n      swap2\n      swap1\n      pop\n      jump\t// out\n        /* \"#utility.yul\":10927:11017   */\n    tag_207:\n        /* \"#utility.yul\":10961:10968   */\n      0x00\n        /* \"#utility.yul\":11004:11009   */\n      dup2\n        /* \"#utility.yul\":10997:11010   */\n      iszero\n        /* \"#utility.yul\":10990:11011   */\n      iszero\n        /* \"#utility.yul\":10979:11011   */\n      swap1\n      pop\n        /* \"#utility.yul\":10927:11017   */\n      swap2\n      swap1\n      pop\n      jump\t// out\n        /* \"#utility.yul\":11023:11149   */\n    tag_295:\n        /* \"#utility.yul\":11060:11067   */\n      0x00\n        /* \"#utility.yul\":11100:11142   */\n      0xffffffffffffffffffffffffffffffffffffffff\n        /* \"#utility.yul\":11093:11098   */\n      dup3\n        /* \"#utility.yul\":11089:11143   */\n      and\n        /* \"#utility.yul\":11078:11143   */\n      swap1\n      pop\n        /* \"#utility.yul\":11023:11149   */\n      swap2\n      swap1\n      pop\n      jump\t// out\n        /* \"#utility.yul\":11155:11232   */\n    tag_237:\n        /* \"#utility.yul\":11192:11199   */\n      0x00\n        /* \"#utility.yul\":11221:11226   */\n      dup2\n        /* \"#utility.yul\":11210:11226   */\n      swap1\n      pop\n        /* \"#utility.yul\":11155:11232   */\n      swap2\n      swap1\n      pop\n      jump\t// out\n        /* \"#utility.yul\":11238:11519   */\n    tag_264:\n        /* \"#utility.yul\":11321:11348   */\n      tag_302\n        /* \"#utility.yul\":11343:11347   */\n      dup3\n        /* \"#utility.yul\":11321:11348   */\n      tag_303\n      jump\t// in\n    tag_302:\n        /* \"#utility.yul\":11313:11319   */\n      dup2\n        /* \"#utility.yul\":11309:11349   */\n      add\n        /* \"#utility.yul\":11451:11457   */\n      dup2\n        /* \"#utility.yul\":11439:11449   */\n      dup2\n        /* \"#utility.yul\":11436:11458   */\n      lt\n        /* \"#utility.yul\":11415:11433   */\n      0xffffffffffffffff\n        /* \"#utility.yul\":11403:11413   */\n      dup3\n        /* \"#utility.yul\":11400:11434   */\n      gt\n        /* \"#utility.yul\":11397:11459   */\n      or\n        /* \"#utility.yul\":11394:11482   */\n      iszero\n      tag_304\n      jumpi\n        /* \"#utility.yul\":11462:11480   */\n      tag_305\n      tag_269\n      jump\t// in\n    tag_305:\n        /* \"#utility.yul\":11394:11482   */\n    tag_304:\n        /* \"#utility.yul\":11502:11512   */\n      dup1\n        /* \"#utility.yul\":11498:11500   */\n      0x40\n        /* \"#utility.yul\":11491:11513   */\n      mstore\n        /* \"#utility.yul\":11281:11519   */\n      pop\n        /* \"#utility.yul\":11238:11519   */\n      pop\n      pop\n      jump\t// out\n        /* \"#utility.yul\":11525:11758   */\n    tag_98:\n        /* \"#utility.yul\":11564:11567   */\n      0x00\n        /* \"#utility.yul\":11587:11611   */\n      tag_307\n        /* \"#utility.yul\":11605:11610   */\n      dup3\n        /* \"#utility.yul\":11587:11611   */\n      tag_237\n      jump\t// in\n    tag_307:\n        /* \"#utility.yul\":11578:11611   */\n      swap2\n      pop\n        /* \"#utility.yul\":11633:11699   */\n      0xffffffffffffffffffffffffffffffffffffffffffffffffffffffffffffffff\n        /* \"#utility.yul\":11626:11631   */\n      dup3\n        /* \"#utility.yul\":11623:11700   */\n      eq\n        /* \"#utility.yul\":11620:11723   */\n      iszero\n      tag_308\n      jumpi\n        /* \"#utility.yul\":11703:11721   */\n      tag_309\n      tag_276\n      jump\t// in\n    tag_309:\n        /* \"#utility.yul\":11620:11723   */\n    tag_308:\n        /* \"#utility.yul\":11750:11751   */\n      0x01\n        /* \"#utility.yul\":11743:11748   */\n      dup3\n        /* \"#utility.yul\":11739:11752   */\n      add\n        /* \"#utility.yul\":11732:11752   */\n      swap1\n      pop\n        /* \"#utility.yul\":11525:11758   */\n      swap2\n      swap1\n      pop\n      jump\t// out\n        /* \"#utility.yul\":11764:11944   */\n    tag_105:\n        /* \"#utility.yul\":11812:11889   */\n      0x4e487b7100000000000000000000000000000000000000000000000000000000\n        /* \"#utility.yul\":11809:11810   */\n      0x00\n        /* \"#utility.yul\":11802:11890   */\n      mstore\n        /* \"#utility.yul\":11909:11913   */\n      0x01\n        /* \"#utility.yul\":11906:11907   */\n      0x04\n        /* \"#utility.yul\":11899:11914   */\n      mstore\n        /* \"#utility.yul\":11933:11937   */\n      0x24\n        /* \"#utility.yul\":11930:11931   */\n      0x00\n        /* \"#utility.yul\":11923:11938   */\n      revert\n        /* \"#utility.yul\":11950:12130   */\n    tag_276:\n        /* \"#utility.yul\":11998:12075   */\n      0x4e487b7100000000000000000000000000000000000000000000000000000000\n        /* \"#utility.yul\":11995:11996   */\n      0x00\n        /* \"#utility.yul\":11988:12076   */\n      mstore\n        /* \"#utility.yul\":12095:12099   */\n      0x11\n        /* \"#utility.yul\":12092:12093   */\n      0x04\n        /* \"#utility.yul\":12085:12100   */\n      mstore\n        /* \"#utility.yul\":12119:12123   */\n      0x24\n        /* \"#utility.yul\":12116:12117   */\n      0x00\n        /* \"#utility.yul\":12109:12124   */\n      revert\n        /* \"#utility.yul\":12136:12316   */\n    tag_282:\n        /* \"#utility.yul\":12184:12261   */\n      0x4e487b7100000000000000000000000000000000000000000000000000000000\n        /* \"#utility.yul\":12181:12182   */\n      0x00\n        /* \"#utility.yul\":12174:12262   */\n      mstore\n        /* \"#utility.yul\":12281:12285   */\n      0x12\n        /* \"#utility.yul\":12278:12279   */\n      0x04\n        /* \"#utility.yul\":12271:12286   */\n      mstore\n        /* \"#utility.yul\":12305:12309   */\n      0x24\n        /* \"#utility.yul\":12302:12303   */\n      0x00\n        /* \"#utility.yul\":12295:12310   */\n      revert\n        /* \"#utility.yul\":12322:12502   */\n    tag_81:\n        /* \"#utility.yul\":12370:12447   */\n      0x4e487b7100000000000000000000000000000000000000000000000000000000\n        /* \"#utility.yul\":12367:12368   */\n      0x00\n        /* \"#utility.yul\":12360:12448   */\n      mstore\n        /* \"#utility.yul\":12467:12471   */\n      0x32\n        /* \"#utility.yul\":12464:12465   */\n      0x04\n        /* \"#utility.yul\":12457:12472   */\n      mstore\n        /* \"#utility.yul\":12491:12495   */\n      0x24\n        /* \"#utility.yul\":12488:12489   */\n      0x00\n        /* \"#utility.yul\":12481:12496   */\n      revert\n        /* \"#utility.yul\":12508:12688   */\n    tag_269:\n        /* \"#utility.yul\":12556:12633   */\n      0x4e487b7100000000000000000000000000000000000000000000000000000000\n        /* \"#utility.yul\":12553:12554   */\n      0x00\n        /* \"#utility.yul\":12546:12634   */\n      mstore\n        /* \"#utility.yul\":12653:12657   */\n      0x41\n        /* \"#utility.yul\":12650:12651   */\n      0x04\n        /* \"#utility.yul\":12643:12658   */\n      mstore\n        /* \"#utility.yul\":12677:12681   */\n      0x24\n        /* \"#utility.yul\":12674:12675   */\n      0x00\n        /* \"#utility.yul\":12667:12682   */\n      revert\n        /* \"#utility.yul\":12694:12811   */\n    tag_171:\n        /* \"#utility.yul\":12803:12804   */\n      0x00\n        /* \"#utility.yul\":12800:12801   */\n      dup1\n        /* \"#utility.yul\":12793:12805   */\n      revert\n        /* \"#utility.yul\":12817:12934   */\n    tag_158:\n        /* \"#utility.yul\":12926:12927   */\n      0x00\n        /* \"#utility.yul\":12923:12924   */\n      dup1\n        /* \"#utility.yul\":12916:12928   */\n      revert\n        /* \"#utility.yul\":12940:13057   */\n    tag_194:\n        /* \"#utility.yul\":13049:13050   */\n      0x00\n        /* \"#utility.yul\":13046:13047   */\n      dup1\n        /* \"#utility.yul\":13039:13051   */\n      revert\n        /* \"#utility.yul\":13063:13180   */\n    tag_180:\n        /* \"#utility.yul\":13172:13173   */\n      0x00\n        /* \"#utility.yul\":13169:13170   */\n      dup1\n        /* \"#utility.yul\":13162:13174   */\n      revert\n        /* \"#utility.yul\":13186:13288   */\n    tag_303:\n        /* \"#utility.yul\":13227:13233   */\n      0x00\n        /* \"#utility.yul\":13278:13280   */\n      0x1f\n        /* \"#utility.yul\":13274:13281   */\n      not\n        /* \"#utility.yul\":13269:13271   */\n      0x1f\n        /* \"#utility.yul\":13262:13267   */\n      dup4\n        /* \"#utility.yul\":13258:13272   */\n      add\n        /* \"#utility.yul\":13254:13282   */\n      and\n        /* \"#utility.yul\":13244:13282   */\n      swap1\n      pop\n        /* \"#utility.yul\":13186:13288   */\n      swap2\n      swap1\n      pop\n      jump\t// out\n        /* \"#utility.yul\":13294:13458   */\n    tag_213:\n        /* \"#utility.yul\":13434:13450   */\n      0x746f6f206561726c792064617465000000000000000000000000000000000000\n        /* \"#utility.yul\":13430:13431   */\n      0x00\n        /* \"#utility.yul\":13422:13428   */\n      dup3\n        /* \"#utility.yul\":13418:13432   */\n      add\n        /* \"#utility.yul\":13411:13451   */\n      mstore\n        /* \"#utility.yul\":13294:13458   */\n      pop\n      jump\t// out\n        /* \"#utility.yul\":13464:13639   */\n    tag_218:\n        /* \"#utility.yul\":13604:13631   */\n      0x6e656564206174206c6561737420312063616e64696461746500000000000000\n        /* \"#utility.yul\":13600:13601   */\n      0x00\n        /* \"#utility.yul\":13592:13598   */\n      dup3\n        /* \"#utility.yul\":13588:13602   */\n      add\n        /* \"#utility.yul\":13581:13632   */\n      mstore\n        /* \"#utility.yul\":13464:13639   */\n      pop\n      jump\t// out\n        /* \"#utility.yul\":13645:13813   */\n    tag_223:\n        /* \"#utility.yul\":13785:13805   */\n      0x63616e2774206265207a65726f20646179730000000000000000000000000000\n        /* \"#utility.yul\":13781:13782   */\n      0x00\n        /* \"#utility.yul\":13773:13779   */\n      dup3\n        /* \"#utility.yul\":13769:13783   */\n      add\n        /* \"#utility.yul\":13762:13806   */\n      mstore\n        /* \"#utility.yul\":13645:13813   */\n      pop\n      jump\t// out\n        /* \"#utility.yul\":13819:13982   */\n    tag_228:\n        /* \"#utility.yul\":13959:13974   */\n      0x746f6f206c617465206461746500000000000000000000000000000000000000\n        /* \"#utility.yul\":13955:13956   */\n      0x00\n        /* \"#utility.yul\":13947:13953   */\n      dup3\n        /* \"#utility.yul\":13943:13957   */\n      add\n        /* \"#utility.yul\":13936:13975   */\n      mstore\n        /* \"#utility.yul\":13819:13982   */\n      pop\n      jump\t// out\n        /* \"#utility.yul\":13988:14162   */\n    tag_233:\n        /* \"#utility.yul\":14128:14154   */\n      0x566f7465722068617320616c726561647920766f7465642e0000000000000000\n        /* \"#utility.yul\":14124:14125   */\n      0x00\n        /* \"#utility.yul\":14116:14122   */\n      dup3\n        /* \"#utility.yul\":14112:14126   */\n      add\n        /* \"#utility.yul\":14105:14155   */\n      mstore\n        /* \"#utility.yul\":13988:14162   */\n      pop\n      jump\t// out\n        /* \"#utility.yul\":14168:14290   */\n    tag_166:\n        /* \"#utility.yul\":14241:14265   */\n      tag_326\n        /* \"#utility.yul\":14259:14264   */\n      dup2\n        /* \"#utility.yul\":14241:14265   */\n      tag_203\n      jump\t// in\n    tag_326:\n        /* \"#utility.yul\":14234:14239   */\n      dup2\n        /* \"#utility.yul\":14231:14266   */\n      eq\n        /* \"#utility.yul\":14221:14284   */\n      tag_327\n      jumpi\n        /* \"#utility.yul\":14280:14281   */\n      0x00\n        /* \"#utility.yul\":14277:14278   */\n      dup1\n        /* \"#utility.yul\":14270:14282   */\n      revert\n        /* \"#utility.yul\":14221:14284   */\n    tag_327:\n        /* \"#utility.yul\":14168:14290   */\n      pop\n      jump\t// out\n        /* \"#utility.yul\":14296:14418   */\n    tag_176:\n        /* \"#utility.yul\":14369:14393   */\n      tag_329\n        /* \"#utility.yul\":14387:14392   */\n      dup2\n        /* \"#utility.yul\":14369:14393   */\n      tag_237\n      jump\t// in\n    tag_329:\n        /* \"#utility.yul\":14362:14367   */\n      dup2\n        /* \"#utility.yul\":14359:14394   */\n      eq\n        /* \"#utility.yul\":14349:14412   */\n      tag_330\n      jumpi\n        /* \"#utility.yul\":14408:14409   */\n      0x00\n        /* \"#utility.yul\":14405:14406   */\n      dup1\n        /* \"#utility.yul\":14398:14410   */\n      revert\n        /* \"#utility.yul\":14349:14412   */\n    tag_330:\n        /* \"#utility.yul\":14296:14418   */\n      pop\n      jump\t// out\n\n    auxdata: 0xa2646970667358221220f0a763b5ad51c0b94b79375435e800ee404c0cdc97f1b797adb2f0c5bddf9d2264736f6c63430008070033\n}\n",
				"bytecode": {
					"linkReferences": {},
					"object": "608060405234801561001057600080fd5b5033600260006101000a81548173ffffffffffffffffffffffffffffffffffffffff021916908373ffffffffffffffffffffffffffffffffffffffff160217905550611248806100616000396000f3fe6080604052600436106100865760003560e01c8063476343ee11610059578063476343ee146101485780634c5ee9fa1461015f57806375c5e5311461018a57806386a50535146101b3578063a3ec138d146101cf57610086565b80630d8a1bcb1461008b5780632102d43b146100b457806325dff9d1146100dd5780633477ee2e1461010a575b600080fd5b34801561009757600080fd5b506100b260048036038101906100ad9190610add565b61020d565b005b3480156100c057600080fd5b506100db60048036038101906100d69190610add565b610253565b005b3480156100e957600080fd5b506100f2610299565b60405161010193929190610d85565b60405180910390f35b34801561011657600080fd5b50610131600480360381019061012c9190610add565b6102e0565b60405161013f929190610d5c565b60405180910390f35b34801561015457600080fd5b5061015d610334565b005b34801561016b57600080fd5b50610174610622565b6040516101819190610c78565b60405180910390f35b34801561019657600080fd5b506101b160048036038101906101ac9190610b0a565b610648565b005b6101cd60048036038101906101c89190610add565b61083e565b005b3480156101db57600080fd5b506101f660048036038101906101f19190610ab0565b6109b7565b604051610204929190610c93565b60405180910390f35b80421115610250576040517f08c379a000000000000000000000000000000000000000000000000000000000815260040161024790610cbc565b60405180910390fd5b50565b80421015610296576040517f08c379a000000000000000000000000000000000000000000000000000000000815260040161028d90610d1c565b60405180910390fd5b50565b60008060006018603c80426003546102b19190610eff565b6102bb9190610e74565b6102c59190610e74565b6102cf9190610e74565b925060045491506005549050909192565b600181815481106102f057600080fd5b90600052602060002090600202016000915090508060000154908060010160009054906101000a900473ffffffffffffffffffffffffffffffffffffffff16905082565b3373ffffffffffffffffffffffffffffffffffffffff16600260009054906101000a900473ffffffffffffffffffffffffffffffffffffffff1673ffffffffffffffffffffffffffffffffffffffff16141561062057610395600354610253565b600080600190506000805b60018054905081101561048a5783600182815481106103c2576103c1611094565b5b906000526020600020906002020160000154111561040757600181815481106103ee576103ed611094565b5b9060005260206000209060020201600001549350600192505b6001818154811061041b5761041a611094565b5b906000526020600020906002020160000154826104389190610e1e565b9150836001828154811061044f5761044e611094565b5b9060005260206000209060020201600001541415610477576001836104749190610e1e565b92505b808061048290610fbe565b9150506103a0565b506000828260055460045461049f9190610eff565b6104a99190610ea5565b6104b39190610e74565b905060008110156104c7576104c6611007565b5b60005b6001805490508110156105a45784600182815481106104ec576104eb611094565b5b9060005260206000209060020201600001541415610591576001818154811061051857610517611094565b5b906000526020600020906002020160010160009054906101000a900473ffffffffffffffffffffffffffffffffffffffff1673ffffffffffffffffffffffffffffffffffffffff166108fc839081150290604051600060405180830381858888f1935050505015801561058f573d6000803e3d6000fd5b505b808061059c90610fbe565b9150506104ca565b50600260009054906101000a900473ffffffffffffffffffffffffffffffffffffffff1673ffffffffffffffffffffffffffffffffffffffff166108fc836005546105ef9190610ea5565b9081150290604051600060405180830381858888f1935050505015801561061a573d6000803e3d6000fd5b50505050505b565b600260009054906101000a900473ffffffffffffffffffffffffffffffffffffffff1681565b3373ffffffffffffffffffffffffffffffffffffffff16600260009054906101000a900473ffffffffffffffffffffffffffffffffffffffff1673ffffffffffffffffffffffffffffffffffffffff16141561083857600084116106e1576040517f08c379a00000000000000000000000000000000000000000000000000000000081526004016106d890610cfc565b60405180910390fd5b6000815111610725576040517f08c379a000000000000000000000000000000000000000000000000000000000815260040161071c90610cdc565b60405180910390fd5b62015180846107349190610ea5565b4261073f9190610e1e565b600381905550826004819055508160058190555060005b815181101561083657600160405180604001604052806000815260200184848151811061078657610785611094565b5b602002602001015173ffffffffffffffffffffffffffffffffffffffff1681525090806001815401808255809150506001900390600052602060002090600202016000909190919091506000820151816000015560208201518160010160006101000a81548173ffffffffffffffffffffffffffffffffffffffff021916908373ffffffffffffffffffffffffffffffffffffffff1602179055505050808061082e90610fbe565b915050610756565b505b50505050565b610849600354610253565b6000803373ffffffffffffffffffffffffffffffffffffffff1673ffffffffffffffffffffffffffffffffffffffff16815260200190815260200160002060000160009054906101000a900460ff16156108d8576040517f08c379a00000000000000000000000000000000000000000000000000000000081526004016108cf90610d3c565b60405180910390fd5b60016000803373ffffffffffffffffffffffffffffffffffffffff1673ffffffffffffffffffffffffffffffffffffffff16815260200190815260200160002060000160006101000a81548160ff021916908315150217905550806000803373ffffffffffffffffffffffffffffffffffffffff1673ffffffffffffffffffffffffffffffffffffffff16815260200190815260200160002060010181905550600180828154811061098d5761098c611094565b5b906000526020600020906002020160000160008282546109ad9190610e1e565b9250508190555050565b60006020528060005260406000206000915090508060000160009054906101000a900460ff16908060010154905082565b60006109fb6109f684610de1565b610dbc565b90508083825260208201905082856020860282011115610a1e57610a1d6110f7565b5b60005b85811015610a4e5781610a348882610a58565b845260208401935060208301925050600181019050610a21565b5050509392505050565b600081359050610a67816111e4565b92915050565b600082601f830112610a8257610a816110f2565b5b8135610a928482602086016109e8565b91505092915050565b600081359050610aaa816111fb565b92915050565b600060208284031215610ac657610ac5611101565b5b6000610ad484828501610a58565b91505092915050565b600060208284031215610af357610af2611101565b5b6000610b0184828501610a9b565b91505092915050565b60008060008060808587031215610b2457610b23611101565b5b6000610b3287828801610a9b565b9450506020610b4387828801610a9b565b9350506040610b5487828801610a9b565b925050606085013567ffffffffffffffff811115610b7557610b746110fc565b5b610b8187828801610a6d565b91505092959194509250565b610b9681610f45565b82525050565b610ba581610f33565b82525050565b610bb481610f57565b82525050565b6000610bc7600e83610e0d565b9150610bd282611117565b602082019050919050565b6000610bea601983610e0d565b9150610bf582611140565b602082019050919050565b6000610c0d601283610e0d565b9150610c1882611169565b602082019050919050565b6000610c30600d83610e0d565b9150610c3b82611192565b602082019050919050565b6000610c53601883610e0d565b9150610c5e826111bb565b602082019050919050565b610c7281610f83565b82525050565b6000602082019050610c8d6000830184610b9c565b92915050565b6000604082019050610ca86000830185610bab565b610cb56020830184610c69565b9392505050565b60006020820190508181036000830152610cd581610bba565b9050919050565b60006020820190508181036000830152610cf581610bdd565b9050919050565b60006020820190508181036000830152610d1581610c00565b9050919050565b60006020820190508181036000830152610d3581610c23565b9050919050565b60006020820190508181036000830152610d5581610c46565b9050919050565b6000604082019050610d716000830185610c69565b610d7e6020830184610b8d565b9392505050565b6000606082019050610d9a6000830186610c69565b610da76020830185610c69565b610db46040830184610c69565b949350505050565b6000610dc6610dd7565b9050610dd28282610f8d565b919050565b6000604051905090565b600067ffffffffffffffff821115610dfc57610dfb6110c3565b5b602082029050602081019050919050565b600082825260208201905092915050565b6000610e2982610f83565b9150610e3483610f83565b9250827fffffffffffffffffffffffffffffffffffffffffffffffffffffffffffffffff03821115610e6957610e68611036565b5b828201905092915050565b6000610e7f82610f83565b9150610e8a83610f83565b925082610e9a57610e99611065565b5b828204905092915050565b6000610eb082610f83565b9150610ebb83610f83565b9250817fffffffffffffffffffffffffffffffffffffffffffffffffffffffffffffffff0483118215151615610ef457610ef3611036565b5b828202905092915050565b6000610f0a82610f83565b9150610f1583610f83565b925082821015610f2857610f27611036565b5b828203905092915050565b6000610f3e82610f63565b9050919050565b6000610f5082610f63565b9050919050565b60008115159050919050565b600073ffffffffffffffffffffffffffffffffffffffff82169050919050565b6000819050919050565b610f9682611106565b810181811067ffffffffffffffff82111715610fb557610fb46110c3565b5b80604052505050565b6000610fc982610f83565b91507fffffffffffffffffffffffffffffffffffffffffffffffffffffffffffffffff821415610ffc57610ffb611036565b5b600182019050919050565b7f4e487b7100000000000000000000000000000000000000000000000000000000600052600160045260246000fd5b7f4e487b7100000000000000000000000000000000000000000000000000000000600052601160045260246000fd5b7f4e487b7100000000000000000000000000000000000000000000000000000000600052601260045260246000fd5b7f4e487b7100000000000000000000000000000000000000000000000000000000600052603260045260246000fd5b7f4e487b7100000000000000000000000000000000000000000000000000000000600052604160045260246000fd5b600080fd5b600080fd5b600080fd5b600080fd5b6000601f19601f8301169050919050565b7f746f6f206561726c792064617465000000000000000000000000000000000000600082015250565b7f6e656564206174206c6561737420312063616e64696461746500000000000000600082015250565b7f63616e2774206265207a65726f20646179730000000000000000000000000000600082015250565b7f746f6f206c617465206461746500000000000000000000000000000000000000600082015250565b7f566f7465722068617320616c726561647920766f7465642e0000000000000000600082015250565b6111ed81610f33565b81146111f857600080fd5b50565b61120481610f83565b811461120f57600080fd5b5056fea2646970667358221220f0a763b5ad51c0b94b79375435e800ee404c0cdc97f1b797adb2f0c5bddf9d2264736f6c63430008070033",
					"opcodes": "PUSH1 0x80 PUSH1 0x40 MSTORE CALLVALUE DUP1 ISZERO PUSH2 0x10 JUMPI PUSH1 0x0 DUP1 REVERT JUMPDEST POP CALLER PUSH1 0x2 PUSH1 0x0 PUSH2 0x100 EXP DUP2 SLOAD DUP2 PUSH20 0xFFFFFFFFFFFFFFFFFFFFFFFFFFFFFFFFFFFFFFFF MUL NOT AND SWAP1 DUP4 PUSH20 0xFFFFFFFFFFFFFFFFFFFFFFFFFFFFFFFFFFFFFFFF AND MUL OR SWAP1 SSTORE POP PUSH2 0x1248 DUP1 PUSH2 0x61 PUSH1 0x0 CODECOPY PUSH1 0x0 RETURN INVALID PUSH1 0x80 PUSH1 0x40 MSTORE PUSH1 0x4 CALLDATASIZE LT PUSH2 0x86 JUMPI PUSH1 0x0 CALLDATALOAD PUSH1 0xE0 SHR DUP1 PUSH4 0x476343EE GT PUSH2 0x59 JUMPI DUP1 PUSH4 0x476343EE EQ PUSH2 0x148 JUMPI DUP1 PUSH4 0x4C5EE9FA EQ PUSH2 0x15F JUMPI DUP1 PUSH4 0x75C5E531 EQ PUSH2 0x18A JUMPI DUP1 PUSH4 0x86A50535 EQ PUSH2 0x1B3 JUMPI DUP1 PUSH4 0xA3EC138D EQ PUSH2 0x1CF JUMPI PUSH2 0x86 JUMP JUMPDEST DUP1 PUSH4 0xD8A1BCB EQ PUSH2 0x8B JUMPI DUP1 PUSH4 0x2102D43B EQ PUSH2 0xB4 JUMPI DUP1 PUSH4 0x25DFF9D1 EQ PUSH2 0xDD JUMPI DUP1 PUSH4 0x3477EE2E EQ PUSH2 0x10A JUMPI JUMPDEST PUSH1 0x0 DUP1 REVERT JUMPDEST CALLVALUE DUP1 ISZERO PUSH2 0x97 JUMPI PUSH1 0x0 DUP1 REVERT JUMPDEST POP PUSH2 0xB2 PUSH1 0x4 DUP1 CALLDATASIZE SUB DUP2 ADD SWAP1 PUSH2 0xAD SWAP2 SWAP1 PUSH2 0xADD JUMP JUMPDEST PUSH2 0x20D JUMP JUMPDEST STOP JUMPDEST CALLVALUE DUP1 ISZERO PUSH2 0xC0 JUMPI PUSH1 0x0 DUP1 REVERT JUMPDEST POP PUSH2 0xDB PUSH1 0x4 DUP1 CALLDATASIZE SUB DUP2 ADD SWAP1 PUSH2 0xD6 SWAP2 SWAP1 PUSH2 0xADD JUMP JUMPDEST PUSH2 0x253 JUMP JUMPDEST STOP JUMPDEST CALLVALUE DUP1 ISZERO PUSH2 0xE9 JUMPI PUSH1 0x0 DUP1 REVERT JUMPDEST POP PUSH2 0xF2 PUSH2 0x299 JUMP JUMPDEST PUSH1 0x40 MLOAD PUSH2 0x101 SWAP4 SWAP3 SWAP2 SWAP1 PUSH2 0xD85 JUMP JUMPDEST PUSH1 0x40 MLOAD DUP1 SWAP2 SUB SWAP1 RETURN JUMPDEST CALLVALUE DUP1 ISZERO PUSH2 0x116 JUMPI PUSH1 0x0 DUP1 REVERT JUMPDEST POP PUSH2 0x131 PUSH1 0x4 DUP1 CALLDATASIZE SUB DUP2 ADD SWAP1 PUSH2 0x12C SWAP2 SWAP1 PUSH2 0xADD JUMP JUMPDEST PUSH2 0x2E0 JUMP JUMPDEST PUSH1 0x40 MLOAD PUSH2 0x13F SWAP3 SWAP2 SWAP1 PUSH2 0xD5C JUMP JUMPDEST PUSH1 0x40 MLOAD DUP1 SWAP2 SUB SWAP1 RETURN JUMPDEST CALLVALUE DUP1 ISZERO PUSH2 0x154 JUMPI PUSH1 0x0 DUP1 REVERT JUMPDEST POP PUSH2 0x15D PUSH2 0x334 JUMP JUMPDEST STOP JUMPDEST CALLVALUE DUP1 ISZERO PUSH2 0x16B JUMPI PUSH1 0x0 DUP1 REVERT JUMPDEST POP PUSH2 0x174 PUSH2 0x622 JUMP JUMPDEST PUSH1 0x40 MLOAD PUSH2 0x181 SWAP2 SWAP1 PUSH2 0xC78 JUMP JUMPDEST PUSH1 0x40 MLOAD DUP1 SWAP2 SUB SWAP1 RETURN JUMPDEST CALLVALUE DUP1 ISZERO PUSH2 0x196 JUMPI PUSH1 0x0 DUP1 REVERT JUMPDEST POP PUSH2 0x1B1 PUSH1 0x4 DUP1 CALLDATASIZE SUB DUP2 ADD SWAP1 PUSH2 0x1AC SWAP2 SWAP1 PUSH2 0xB0A JUMP JUMPDEST PUSH2 0x648 JUMP JUMPDEST STOP JUMPDEST PUSH2 0x1CD PUSH1 0x4 DUP1 CALLDATASIZE SUB DUP2 ADD SWAP1 PUSH2 0x1C8 SWAP2 SWAP1 PUSH2 0xADD JUMP JUMPDEST PUSH2 0x83E JUMP JUMPDEST STOP JUMPDEST CALLVALUE DUP1 ISZERO PUSH2 0x1DB JUMPI PUSH1 0x0 DUP1 REVERT JUMPDEST POP PUSH2 0x1F6 PUSH1 0x4 DUP1 CALLDATASIZE SUB DUP2 ADD SWAP1 PUSH2 0x1F1 SWAP2 SWAP1 PUSH2 0xAB0 JUMP JUMPDEST PUSH2 0x9B7 JUMP JUMPDEST PUSH1 0x40 MLOAD PUSH2 0x204 SWAP3 SWAP2 SWAP1 PUSH2 0xC93 JUMP JUMPDEST PUSH1 0x40 MLOAD DUP1 SWAP2 SUB SWAP1 RETURN JUMPDEST DUP1 TIMESTAMP GT ISZERO PUSH2 0x250 JUMPI PUSH1 0x40 MLOAD PUSH32 0x8C379A000000000000000000000000000000000000000000000000000000000 DUP2 MSTORE PUSH1 0x4 ADD PUSH2 0x247 SWAP1 PUSH2 0xCBC JUMP JUMPDEST PUSH1 0x40 MLOAD DUP1 SWAP2 SUB SWAP1 REVERT JUMPDEST POP JUMP JUMPDEST DUP1 TIMESTAMP LT ISZERO PUSH2 0x296 JUMPI PUSH1 0x40 MLOAD PUSH32 0x8C379A000000000000000000000000000000000000000000000000000000000 DUP2 MSTORE PUSH1 0x4 ADD PUSH2 0x28D SWAP1 PUSH2 0xD1C JUMP JUMPDEST PUSH1 0x40 MLOAD DUP1 SWAP2 SUB SWAP1 REVERT JUMPDEST POP JUMP JUMPDEST PUSH1 0x0 DUP1 PUSH1 0x0 PUSH1 0x18 PUSH1 0x3C DUP1 TIMESTAMP PUSH1 0x3 SLOAD PUSH2 0x2B1 SWAP2 SWAP1 PUSH2 0xEFF JUMP JUMPDEST PUSH2 0x2BB SWAP2 SWAP1 PUSH2 0xE74 JUMP JUMPDEST PUSH2 0x2C5 SWAP2 SWAP1 PUSH2 0xE74 JUMP JUMPDEST PUSH2 0x2CF SWAP2 SWAP1 PUSH2 0xE74 JUMP JUMPDEST SWAP3 POP PUSH1 0x4 SLOAD SWAP2 POP PUSH1 0x5 SLOAD SWAP1 POP SWAP1 SWAP2 SWAP3 JUMP JUMPDEST PUSH1 0x1 DUP2 DUP2 SLOAD DUP2 LT PUSH2 0x2F0 JUMPI PUSH1 0x0 DUP1 REVERT JUMPDEST SWAP1 PUSH1 0x0 MSTORE PUSH1 0x20 PUSH1 0x0 KECCAK256 SWAP1 PUSH1 0x2 MUL ADD PUSH1 0x0 SWAP2 POP SWAP1 POP DUP1 PUSH1 0x0 ADD SLOAD SWAP1 DUP1 PUSH1 0x1 ADD PUSH1 0x0 SWAP1 SLOAD SWAP1 PUSH2 0x100 EXP SWAP1 DIV PUSH20 0xFFFFFFFFFFFFFFFFFFFFFFFFFFFFFFFFFFFFFFFF AND SWAP1 POP DUP3 JUMP JUMPDEST CALLER PUSH20 0xFFFFFFFFFFFFFFFFFFFFFFFFFFFFFFFFFFFFFFFF AND PUSH1 0x2 PUSH1 0x0 SWAP1 SLOAD SWAP1 PUSH2 0x100 EXP SWAP1 DIV PUSH20 0xFFFFFFFFFFFFFFFFFFFFFFFFFFFFFFFFFFFFFFFF AND PUSH20 0xFFFFFFFFFFFFFFFFFFFFFFFFFFFFFFFFFFFFFFFF AND EQ ISZERO PUSH2 0x620 JUMPI PUSH2 0x395 PUSH1 0x3 SLOAD PUSH2 0x253 JUMP JUMPDEST PUSH1 0x0 DUP1 PUSH1 0x1 SWAP1 POP PUSH1 0x0 DUP1 JUMPDEST PUSH1 0x1 DUP1 SLOAD SWAP1 POP DUP2 LT ISZERO PUSH2 0x48A JUMPI DUP4 PUSH1 0x1 DUP3 DUP2 SLOAD DUP2 LT PUSH2 0x3C2 JUMPI PUSH2 0x3C1 PUSH2 0x1094 JUMP JUMPDEST JUMPDEST SWAP1 PUSH1 0x0 MSTORE PUSH1 0x20 PUSH1 0x0 KECCAK256 SWAP1 PUSH1 0x2 MUL ADD PUSH1 0x0 ADD SLOAD GT ISZERO PUSH2 0x407 JUMPI PUSH1 0x1 DUP2 DUP2 SLOAD DUP2 LT PUSH2 0x3EE JUMPI PUSH2 0x3ED PUSH2 0x1094 JUMP JUMPDEST JUMPDEST SWAP1 PUSH1 0x0 MSTORE PUSH1 0x20 PUSH1 0x0 KECCAK256 SWAP1 PUSH1 0x2 MUL ADD PUSH1 0x0 ADD SLOAD SWAP4 POP PUSH1 0x1 SWAP3 POP JUMPDEST PUSH1 0x1 DUP2 DUP2 SLOAD DUP2 LT PUSH2 0x41B JUMPI PUSH2 0x41A PUSH2 0x1094 JUMP JUMPDEST JUMPDEST SWAP1 PUSH1 0x0 MSTORE PUSH1 0x20 PUSH1 0x0 KECCAK256 SWAP1 PUSH1 0x2 MUL ADD PUSH1 0x0 ADD SLOAD DUP3 PUSH2 0x438 SWAP2 SWAP1 PUSH2 0xE1E JUMP JUMPDEST SWAP2 POP DUP4 PUSH1 0x1 DUP3 DUP2 SLOAD DUP2 LT PUSH2 0x44F JUMPI PUSH2 0x44E PUSH2 0x1094 JUMP JUMPDEST JUMPDEST SWAP1 PUSH1 0x0 MSTORE PUSH1 0x20 PUSH1 0x0 KECCAK256 SWAP1 PUSH1 0x2 MUL ADD PUSH1 0x0 ADD SLOAD EQ ISZERO PUSH2 0x477 JUMPI PUSH1 0x1 DUP4 PUSH2 0x474 SWAP2 SWAP1 PUSH2 0xE1E JUMP JUMPDEST SWAP3 POP JUMPDEST DUP1 DUP1 PUSH2 0x482 SWAP1 PUSH2 0xFBE JUMP JUMPDEST SWAP2 POP POP PUSH2 0x3A0 JUMP JUMPDEST POP PUSH1 0x0 DUP3 DUP3 PUSH1 0x5 SLOAD PUSH1 0x4 SLOAD PUSH2 0x49F SWAP2 SWAP1 PUSH2 0xEFF JUMP JUMPDEST PUSH2 0x4A9 SWAP2 SWAP1 PUSH2 0xEA5 JUMP JUMPDEST PUSH2 0x4B3 SWAP2 SWAP1 PUSH2 0xE74 JUMP JUMPDEST SWAP1 POP PUSH1 0x0 DUP2 LT ISZERO PUSH2 0x4C7 JUMPI PUSH2 0x4C6 PUSH2 0x1007 JUMP JUMPDEST JUMPDEST PUSH1 0x0 JUMPDEST PUSH1 0x1 DUP1 SLOAD SWAP1 POP DUP2 LT ISZERO PUSH2 0x5A4 JUMPI DUP5 PUSH1 0x1 DUP3 DUP2 SLOAD DUP2 LT PUSH2 0x4EC JUMPI PUSH2 0x4EB PUSH2 0x1094 JUMP JUMPDEST JUMPDEST SWAP1 PUSH1 0x0 MSTORE PUSH1 0x20 PUSH1 0x0 KECCAK256 SWAP1 PUSH1 0x2 MUL ADD PUSH1 0x0 ADD SLOAD EQ ISZERO PUSH2 0x591 JUMPI PUSH1 0x1 DUP2 DUP2 SLOAD DUP2 LT PUSH2 0x518 JUMPI PUSH2 0x517 PUSH2 0x1094 JUMP JUMPDEST JUMPDEST SWAP1 PUSH1 0x0 MSTORE PUSH1 0x20 PUSH1 0x0 KECCAK256 SWAP1 PUSH1 0x2 MUL ADD PUSH1 0x1 ADD PUSH1 0x0 SWAP1 SLOAD SWAP1 PUSH2 0x100 EXP SWAP1 DIV PUSH20 0xFFFFFFFFFFFFFFFFFFFFFFFFFFFFFFFFFFFFFFFF AND PUSH20 0xFFFFFFFFFFFFFFFFFFFFFFFFFFFFFFFFFFFFFFFF AND PUSH2 0x8FC DUP4 SWAP1 DUP2 ISZERO MUL SWAP1 PUSH1 0x40 MLOAD PUSH1 0x0 PUSH1 0x40 MLOAD DUP1 DUP4 SUB DUP2 DUP6 DUP9 DUP9 CALL SWAP4 POP POP POP POP ISZERO DUP1 ISZERO PUSH2 0x58F JUMPI RETURNDATASIZE PUSH1 0x0 DUP1 RETURNDATACOPY RETURNDATASIZE PUSH1 0x0 REVERT JUMPDEST POP JUMPDEST DUP1 DUP1 PUSH2 0x59C SWAP1 PUSH2 0xFBE JUMP JUMPDEST SWAP2 POP POP PUSH2 0x4CA JUMP JUMPDEST POP PUSH1 0x2 PUSH1 0x0 SWAP1 SLOAD SWAP1 PUSH2 0x100 EXP SWAP1 DIV PUSH20 0xFFFFFFFFFFFFFFFFFFFFFFFFFFFFFFFFFFFFFFFF AND PUSH20 0xFFFFFFFFFFFFFFFFFFFFFFFFFFFFFFFFFFFFFFFF AND PUSH2 0x8FC DUP4 PUSH1 0x5 SLOAD PUSH2 0x5EF SWAP2 SWAP1 PUSH2 0xEA5 JUMP JUMPDEST SWAP1 DUP2 ISZERO MUL SWAP1 PUSH1 0x40 MLOAD PUSH1 0x0 PUSH1 0x40 MLOAD DUP1 DUP4 SUB DUP2 DUP6 DUP9 DUP9 CALL SWAP4 POP POP POP POP ISZERO DUP1 ISZERO PUSH2 0x61A JUMPI RETURNDATASIZE PUSH1 0x0 DUP1 RETURNDATACOPY RETURNDATASIZE PUSH1 0x0 REVERT JUMPDEST POP POP POP POP POP JUMPDEST JUMP JUMPDEST PUSH1 0x2 PUSH1 0x0 SWAP1 SLOAD SWAP1 PUSH2 0x100 EXP SWAP1 DIV PUSH20 0xFFFFFFFFFFFFFFFFFFFFFFFFFFFFFFFFFFFFFFFF AND DUP2 JUMP JUMPDEST CALLER PUSH20 0xFFFFFFFFFFFFFFFFFFFFFFFFFFFFFFFFFFFFFFFF AND PUSH1 0x2 PUSH1 0x0 SWAP1 SLOAD SWAP1 PUSH2 0x100 EXP SWAP1 DIV PUSH20 0xFFFFFFFFFFFFFFFFFFFFFFFFFFFFFFFFFFFFFFFF AND PUSH20 0xFFFFFFFFFFFFFFFFFFFFFFFFFFFFFFFFFFFFFFFF AND EQ ISZERO PUSH2 0x838 JUMPI PUSH1 0x0 DUP5 GT PUSH2 0x6E1 JUMPI PUSH1 0x40 MLOAD PUSH32 0x8C379A000000000000000000000000000000000000000000000000000000000 DUP2 MSTORE PUSH1 0x4 ADD PUSH2 0x6D8 SWAP1 PUSH2 0xCFC JUMP JUMPDEST PUSH1 0x40 MLOAD DUP1 SWAP2 SUB SWAP1 REVERT JUMPDEST PUSH1 0x0 DUP2 MLOAD GT PUSH2 0x725 JUMPI PUSH1 0x40 MLOAD PUSH32 0x8C379A000000000000000000000000000000000000000000000000000000000 DUP2 MSTORE PUSH1 0x4 ADD PUSH2 0x71C SWAP1 PUSH2 0xCDC JUMP JUMPDEST PUSH1 0x40 MLOAD DUP1 SWAP2 SUB SWAP1 REVERT JUMPDEST PUSH3 0x15180 DUP5 PUSH2 0x734 SWAP2 SWAP1 PUSH2 0xEA5 JUMP JUMPDEST TIMESTAMP PUSH2 0x73F SWAP2 SWAP1 PUSH2 0xE1E JUMP JUMPDEST PUSH1 0x3 DUP2 SWAP1 SSTORE POP DUP3 PUSH1 0x4 DUP2 SWAP1 SSTORE POP DUP2 PUSH1 0x5 DUP2 SWAP1 SSTORE POP PUSH1 0x0 JUMPDEST DUP2 MLOAD DUP2 LT ISZERO PUSH2 0x836 JUMPI PUSH1 0x1 PUSH1 0x40 MLOAD DUP1 PUSH1 0x40 ADD PUSH1 0x40 MSTORE DUP1 PUSH1 0x0 DUP2 MSTORE PUSH1 0x20 ADD DUP5 DUP5 DUP2 MLOAD DUP2 LT PUSH2 0x786 JUMPI PUSH2 0x785 PUSH2 0x1094 JUMP JUMPDEST JUMPDEST PUSH1 0x20 MUL PUSH1 0x20 ADD ADD MLOAD PUSH20 0xFFFFFFFFFFFFFFFFFFFFFFFFFFFFFFFFFFFFFFFF AND DUP2 MSTORE POP SWAP1 DUP1 PUSH1 0x1 DUP2 SLOAD ADD DUP1 DUP3 SSTORE DUP1 SWAP2 POP POP PUSH1 0x1 SWAP1 SUB SWAP1 PUSH1 0x0 MSTORE PUSH1 0x20 PUSH1 0x0 KECCAK256 SWAP1 PUSH1 0x2 MUL ADD PUSH1 0x0 SWAP1 SWAP2 SWAP1 SWAP2 SWAP1 SWAP2 POP PUSH1 0x0 DUP3 ADD MLOAD DUP2 PUSH1 0x0 ADD SSTORE PUSH1 0x20 DUP3 ADD MLOAD DUP2 PUSH1 0x1 ADD PUSH1 0x0 PUSH2 0x100 EXP DUP2 SLOAD DUP2 PUSH20 0xFFFFFFFFFFFFFFFFFFFFFFFFFFFFFFFFFFFFFFFF MUL NOT AND SWAP1 DUP4 PUSH20 0xFFFFFFFFFFFFFFFFFFFFFFFFFFFFFFFFFFFFFFFF AND MUL OR SWAP1 SSTORE POP POP POP DUP1 DUP1 PUSH2 0x82E SWAP1 PUSH2 0xFBE JUMP JUMPDEST SWAP2 POP POP PUSH2 0x756 JUMP JUMPDEST POP JUMPDEST POP POP POP POP JUMP JUMPDEST PUSH2 0x849 PUSH1 0x3 SLOAD PUSH2 0x253 JUMP JUMPDEST PUSH1 0x0 DUP1 CALLER PUSH20 0xFFFFFFFFFFFFFFFFFFFFFFFFFFFFFFFFFFFFFFFF AND PUSH20 0xFFFFFFFFFFFFFFFFFFFFFFFFFFFFFFFFFFFFFFFF AND DUP2 MSTORE PUSH1 0x20 ADD SWAP1 DUP2 MSTORE PUSH1 0x20 ADD PUSH1 0x0 KECCAK256 PUSH1 0x0 ADD PUSH1 0x0 SWAP1 SLOAD SWAP1 PUSH2 0x100 EXP SWAP1 DIV PUSH1 0xFF AND ISZERO PUSH2 0x8D8 JUMPI PUSH1 0x40 MLOAD PUSH32 0x8C379A000000000000000000000000000000000000000000000000000000000 DUP2 MSTORE PUSH1 0x4 ADD PUSH2 0x8CF SWAP1 PUSH2 0xD3C JUMP JUMPDEST PUSH1 0x40 MLOAD DUP1 SWAP2 SUB SWAP1 REVERT JUMPDEST PUSH1 0x1 PUSH1 0x0 DUP1 CALLER PUSH20 0xFFFFFFFFFFFFFFFFFFFFFFFFFFFFFFFFFFFFFFFF AND PUSH20 0xFFFFFFFFFFFFFFFFFFFFFFFFFFFFFFFFFFFFFFFF AND DUP2 MSTORE PUSH1 0x20 ADD SWAP1 DUP2 MSTORE PUSH1 0x20 ADD PUSH1 0x0 KECCAK256 PUSH1 0x0 ADD PUSH1 0x0 PUSH2 0x100 EXP DUP2 SLOAD DUP2 PUSH1 0xFF MUL NOT AND SWAP1 DUP4 ISZERO ISZERO MUL OR SWAP1 SSTORE POP DUP1 PUSH1 0x0 DUP1 CALLER PUSH20 0xFFFFFFFFFFFFFFFFFFFFFFFFFFFFFFFFFFFFFFFF AND PUSH20 0xFFFFFFFFFFFFFFFFFFFFFFFFFFFFFFFFFFFFFFFF AND DUP2 MSTORE PUSH1 0x20 ADD SWAP1 DUP2 MSTORE PUSH1 0x20 ADD PUSH1 0x0 KECCAK256 PUSH1 0x1 ADD DUP2 SWAP1 SSTORE POP PUSH1 0x1 DUP1 DUP3 DUP2 SLOAD DUP2 LT PUSH2 0x98D JUMPI PUSH2 0x98C PUSH2 0x1094 JUMP JUMPDEST JUMPDEST SWAP1 PUSH1 0x0 MSTORE PUSH1 0x20 PUSH1 0x0 KECCAK256 SWAP1 PUSH1 0x2 MUL ADD PUSH1 0x0 ADD PUSH1 0x0 DUP3 DUP3 SLOAD PUSH2 0x9AD SWAP2 SWAP1 PUSH2 0xE1E JUMP JUMPDEST SWAP3 POP POP DUP2 SWAP1 SSTORE POP POP JUMP JUMPDEST PUSH1 0x0 PUSH1 0x20 MSTORE DUP1 PUSH1 0x0 MSTORE PUSH1 0x40 PUSH1 0x0 KECCAK256 PUSH1 0x0 SWAP2 POP SWAP1 POP DUP1 PUSH1 0x0 ADD PUSH1 0x0 SWAP1 SLOAD SWAP1 PUSH2 0x100 EXP SWAP1 DIV PUSH1 0xFF AND SWAP1 DUP1 PUSH1 0x1 ADD SLOAD SWAP1 POP DUP3 JUMP JUMPDEST PUSH1 0x0 PUSH2 0x9FB PUSH2 0x9F6 DUP5 PUSH2 0xDE1 JUMP JUMPDEST PUSH2 0xDBC JUMP JUMPDEST SWAP1 POP DUP1 DUP4 DUP3 MSTORE PUSH1 0x20 DUP3 ADD SWAP1 POP DUP3 DUP6 PUSH1 0x20 DUP7 MUL DUP3 ADD GT ISZERO PUSH2 0xA1E JUMPI PUSH2 0xA1D PUSH2 0x10F7 JUMP JUMPDEST JUMPDEST PUSH1 0x0 JUMPDEST DUP6 DUP2 LT ISZERO PUSH2 0xA4E JUMPI DUP2 PUSH2 0xA34 DUP9 DUP3 PUSH2 0xA58 JUMP JUMPDEST DUP5 MSTORE PUSH1 0x20 DUP5 ADD SWAP4 POP PUSH1 0x20 DUP4 ADD SWAP3 POP POP PUSH1 0x1 DUP2 ADD SWAP1 POP PUSH2 0xA21 JUMP JUMPDEST POP POP POP SWAP4 SWAP3 POP POP POP JUMP JUMPDEST PUSH1 0x0 DUP2 CALLDATALOAD SWAP1 POP PUSH2 0xA67 DUP2 PUSH2 0x11E4 JUMP JUMPDEST SWAP3 SWAP2 POP POP JUMP JUMPDEST PUSH1 0x0 DUP3 PUSH1 0x1F DUP4 ADD SLT PUSH2 0xA82 JUMPI PUSH2 0xA81 PUSH2 0x10F2 JUMP JUMPDEST JUMPDEST DUP2 CALLDATALOAD PUSH2 0xA92 DUP5 DUP3 PUSH1 0x20 DUP7 ADD PUSH2 0x9E8 JUMP JUMPDEST SWAP2 POP POP SWAP3 SWAP2 POP POP JUMP JUMPDEST PUSH1 0x0 DUP2 CALLDATALOAD SWAP1 POP PUSH2 0xAAA DUP2 PUSH2 0x11FB JUMP JUMPDEST SWAP3 SWAP2 POP POP JUMP JUMPDEST PUSH1 0x0 PUSH1 0x20 DUP3 DUP5 SUB SLT ISZERO PUSH2 0xAC6 JUMPI PUSH2 0xAC5 PUSH2 0x1101 JUMP JUMPDEST JUMPDEST PUSH1 0x0 PUSH2 0xAD4 DUP5 DUP3 DUP6 ADD PUSH2 0xA58 JUMP JUMPDEST SWAP2 POP POP SWAP3 SWAP2 POP POP JUMP JUMPDEST PUSH1 0x0 PUSH1 0x20 DUP3 DUP5 SUB SLT ISZERO PUSH2 0xAF3 JUMPI PUSH2 0xAF2 PUSH2 0x1101 JUMP JUMPDEST JUMPDEST PUSH1 0x0 PUSH2 0xB01 DUP5 DUP3 DUP6 ADD PUSH2 0xA9B JUMP JUMPDEST SWAP2 POP POP SWAP3 SWAP2 POP POP JUMP JUMPDEST PUSH1 0x0 DUP1 PUSH1 0x0 DUP1 PUSH1 0x80 DUP6 DUP8 SUB SLT ISZERO PUSH2 0xB24 JUMPI PUSH2 0xB23 PUSH2 0x1101 JUMP JUMPDEST JUMPDEST PUSH1 0x0 PUSH2 0xB32 DUP8 DUP3 DUP9 ADD PUSH2 0xA9B JUMP JUMPDEST SWAP5 POP POP PUSH1 0x20 PUSH2 0xB43 DUP8 DUP3 DUP9 ADD PUSH2 0xA9B JUMP JUMPDEST SWAP4 POP POP PUSH1 0x40 PUSH2 0xB54 DUP8 DUP3 DUP9 ADD PUSH2 0xA9B JUMP JUMPDEST SWAP3 POP POP PUSH1 0x60 DUP6 ADD CALLDATALOAD PUSH8 0xFFFFFFFFFFFFFFFF DUP2 GT ISZERO PUSH2 0xB75 JUMPI PUSH2 0xB74 PUSH2 0x10FC JUMP JUMPDEST JUMPDEST PUSH2 0xB81 DUP8 DUP3 DUP9 ADD PUSH2 0xA6D JUMP JUMPDEST SWAP2 POP POP SWAP3 SWAP6 SWAP2 SWAP5 POP SWAP3 POP JUMP JUMPDEST PUSH2 0xB96 DUP2 PUSH2 0xF45 JUMP JUMPDEST DUP3 MSTORE POP POP JUMP JUMPDEST PUSH2 0xBA5 DUP2 PUSH2 0xF33 JUMP JUMPDEST DUP3 MSTORE POP POP JUMP JUMPDEST PUSH2 0xBB4 DUP2 PUSH2 0xF57 JUMP JUMPDEST DUP3 MSTORE POP POP JUMP JUMPDEST PUSH1 0x0 PUSH2 0xBC7 PUSH1 0xE DUP4 PUSH2 0xE0D JUMP JUMPDEST SWAP2 POP PUSH2 0xBD2 DUP3 PUSH2 0x1117 JUMP JUMPDEST PUSH1 0x20 DUP3 ADD SWAP1 POP SWAP2 SWAP1 POP JUMP JUMPDEST PUSH1 0x0 PUSH2 0xBEA PUSH1 0x19 DUP4 PUSH2 0xE0D JUMP JUMPDEST SWAP2 POP PUSH2 0xBF5 DUP3 PUSH2 0x1140 JUMP JUMPDEST PUSH1 0x20 DUP3 ADD SWAP1 POP SWAP2 SWAP1 POP JUMP JUMPDEST PUSH1 0x0 PUSH2 0xC0D PUSH1 0x12 DUP4 PUSH2 0xE0D JUMP JUMPDEST SWAP2 POP PUSH2 0xC18 DUP3 PUSH2 0x1169 JUMP JUMPDEST PUSH1 0x20 DUP3 ADD SWAP1 POP SWAP2 SWAP1 POP JUMP JUMPDEST PUSH1 0x0 PUSH2 0xC30 PUSH1 0xD DUP4 PUSH2 0xE0D JUMP JUMPDEST SWAP2 POP PUSH2 0xC3B DUP3 PUSH2 0x1192 JUMP JUMPDEST PUSH1 0x20 DUP3 ADD SWAP1 POP SWAP2 SWAP1 POP JUMP JUMPDEST PUSH1 0x0 PUSH2 0xC53 PUSH1 0x18 DUP4 PUSH2 0xE0D JUMP JUMPDEST SWAP2 POP PUSH2 0xC5E DUP3 PUSH2 0x11BB JUMP JUMPDEST PUSH1 0x20 DUP3 ADD SWAP1 POP SWAP2 SWAP1 POP JUMP JUMPDEST PUSH2 0xC72 DUP2 PUSH2 0xF83 JUMP JUMPDEST DUP3 MSTORE POP POP JUMP JUMPDEST PUSH1 0x0 PUSH1 0x20 DUP3 ADD SWAP1 POP PUSH2 0xC8D PUSH1 0x0 DUP4 ADD DUP5 PUSH2 0xB9C JUMP JUMPDEST SWAP3 SWAP2 POP POP JUMP JUMPDEST PUSH1 0x0 PUSH1 0x40 DUP3 ADD SWAP1 POP PUSH2 0xCA8 PUSH1 0x0 DUP4 ADD DUP6 PUSH2 0xBAB JUMP JUMPDEST PUSH2 0xCB5 PUSH1 0x20 DUP4 ADD DUP5 PUSH2 0xC69 JUMP JUMPDEST SWAP4 SWAP3 POP POP POP JUMP JUMPDEST PUSH1 0x0 PUSH1 0x20 DUP3 ADD SWAP1 POP DUP2 DUP2 SUB PUSH1 0x0 DUP4 ADD MSTORE PUSH2 0xCD5 DUP2 PUSH2 0xBBA JUMP JUMPDEST SWAP1 POP SWAP2 SWAP1 POP JUMP JUMPDEST PUSH1 0x0 PUSH1 0x20 DUP3 ADD SWAP1 POP DUP2 DUP2 SUB PUSH1 0x0 DUP4 ADD MSTORE PUSH2 0xCF5 DUP2 PUSH2 0xBDD JUMP JUMPDEST SWAP1 POP SWAP2 SWAP1 POP JUMP JUMPDEST PUSH1 0x0 PUSH1 0x20 DUP3 ADD SWAP1 POP DUP2 DUP2 SUB PUSH1 0x0 DUP4 ADD MSTORE PUSH2 0xD15 DUP2 PUSH2 0xC00 JUMP JUMPDEST SWAP1 POP SWAP2 SWAP1 POP JUMP JUMPDEST PUSH1 0x0 PUSH1 0x20 DUP3 ADD SWAP1 POP DUP2 DUP2 SUB PUSH1 0x0 DUP4 ADD MSTORE PUSH2 0xD35 DUP2 PUSH2 0xC23 JUMP JUMPDEST SWAP1 POP SWAP2 SWAP1 POP JUMP JUMPDEST PUSH1 0x0 PUSH1 0x20 DUP3 ADD SWAP1 POP DUP2 DUP2 SUB PUSH1 0x0 DUP4 ADD MSTORE PUSH2 0xD55 DUP2 PUSH2 0xC46 JUMP JUMPDEST SWAP1 POP SWAP2 SWAP1 POP JUMP JUMPDEST PUSH1 0x0 PUSH1 0x40 DUP3 ADD SWAP1 POP PUSH2 0xD71 PUSH1 0x0 DUP4 ADD DUP6 PUSH2 0xC69 JUMP JUMPDEST PUSH2 0xD7E PUSH1 0x20 DUP4 ADD DUP5 PUSH2 0xB8D JUMP JUMPDEST SWAP4 SWAP3 POP POP POP JUMP JUMPDEST PUSH1 0x0 PUSH1 0x60 DUP3 ADD SWAP1 POP PUSH2 0xD9A PUSH1 0x0 DUP4 ADD DUP7 PUSH2 0xC69 JUMP JUMPDEST PUSH2 0xDA7 PUSH1 0x20 DUP4 ADD DUP6 PUSH2 0xC69 JUMP JUMPDEST PUSH2 0xDB4 PUSH1 0x40 DUP4 ADD DUP5 PUSH2 0xC69 JUMP JUMPDEST SWAP5 SWAP4 POP POP POP POP JUMP JUMPDEST PUSH1 0x0 PUSH2 0xDC6 PUSH2 0xDD7 JUMP JUMPDEST SWAP1 POP PUSH2 0xDD2 DUP3 DUP3 PUSH2 0xF8D JUMP JUMPDEST SWAP2 SWAP1 POP JUMP JUMPDEST PUSH1 0x0 PUSH1 0x40 MLOAD SWAP1 POP SWAP1 JUMP JUMPDEST PUSH1 0x0 PUSH8 0xFFFFFFFFFFFFFFFF DUP3 GT ISZERO PUSH2 0xDFC JUMPI PUSH2 0xDFB PUSH2 0x10C3 JUMP JUMPDEST JUMPDEST PUSH1 0x20 DUP3 MUL SWAP1 POP PUSH1 0x20 DUP2 ADD SWAP1 POP SWAP2 SWAP1 POP JUMP JUMPDEST PUSH1 0x0 DUP3 DUP3 MSTORE PUSH1 0x20 DUP3 ADD SWAP1 POP SWAP3 SWAP2 POP POP JUMP JUMPDEST PUSH1 0x0 PUSH2 0xE29 DUP3 PUSH2 0xF83 JUMP JUMPDEST SWAP2 POP PUSH2 0xE34 DUP4 PUSH2 0xF83 JUMP JUMPDEST SWAP3 POP DUP3 PUSH32 0xFFFFFFFFFFFFFFFFFFFFFFFFFFFFFFFFFFFFFFFFFFFFFFFFFFFFFFFFFFFFFFFF SUB DUP3 GT ISZERO PUSH2 0xE69 JUMPI PUSH2 0xE68 PUSH2 0x1036 JUMP JUMPDEST JUMPDEST DUP3 DUP3 ADD SWAP1 POP SWAP3 SWAP2 POP POP JUMP JUMPDEST PUSH1 0x0 PUSH2 0xE7F DUP3 PUSH2 0xF83 JUMP JUMPDEST SWAP2 POP PUSH2 0xE8A DUP4 PUSH2 0xF83 JUMP JUMPDEST SWAP3 POP DUP3 PUSH2 0xE9A JUMPI PUSH2 0xE99 PUSH2 0x1065 JUMP JUMPDEST JUMPDEST DUP3 DUP3 DIV SWAP1 POP SWAP3 SWAP2 POP POP JUMP JUMPDEST PUSH1 0x0 PUSH2 0xEB0 DUP3 PUSH2 0xF83 JUMP JUMPDEST SWAP2 POP PUSH2 0xEBB DUP4 PUSH2 0xF83 JUMP JUMPDEST SWAP3 POP DUP2 PUSH32 0xFFFFFFFFFFFFFFFFFFFFFFFFFFFFFFFFFFFFFFFFFFFFFFFFFFFFFFFFFFFFFFFF DIV DUP4 GT DUP3 ISZERO ISZERO AND ISZERO PUSH2 0xEF4 JUMPI PUSH2 0xEF3 PUSH2 0x1036 JUMP JUMPDEST JUMPDEST DUP3 DUP3 MUL SWAP1 POP SWAP3 SWAP2 POP POP JUMP JUMPDEST PUSH1 0x0 PUSH2 0xF0A DUP3 PUSH2 0xF83 JUMP JUMPDEST SWAP2 POP PUSH2 0xF15 DUP4 PUSH2 0xF83 JUMP JUMPDEST SWAP3 POP DUP3 DUP3 LT ISZERO PUSH2 0xF28 JUMPI PUSH2 0xF27 PUSH2 0x1036 JUMP JUMPDEST JUMPDEST DUP3 DUP3 SUB SWAP1 POP SWAP3 SWAP2 POP POP JUMP JUMPDEST PUSH1 0x0 PUSH2 0xF3E DUP3 PUSH2 0xF63 JUMP JUMPDEST SWAP1 POP SWAP2 SWAP1 POP JUMP JUMPDEST PUSH1 0x0 PUSH2 0xF50 DUP3 PUSH2 0xF63 JUMP JUMPDEST SWAP1 POP SWAP2 SWAP1 POP JUMP JUMPDEST PUSH1 0x0 DUP2 ISZERO ISZERO SWAP1 POP SWAP2 SWAP1 POP JUMP JUMPDEST PUSH1 0x0 PUSH20 0xFFFFFFFFFFFFFFFFFFFFFFFFFFFFFFFFFFFFFFFF DUP3 AND SWAP1 POP SWAP2 SWAP1 POP JUMP JUMPDEST PUSH1 0x0 DUP2 SWAP1 POP SWAP2 SWAP1 POP JUMP JUMPDEST PUSH2 0xF96 DUP3 PUSH2 0x1106 JUMP JUMPDEST DUP2 ADD DUP2 DUP2 LT PUSH8 0xFFFFFFFFFFFFFFFF DUP3 GT OR ISZERO PUSH2 0xFB5 JUMPI PUSH2 0xFB4 PUSH2 0x10C3 JUMP JUMPDEST JUMPDEST DUP1 PUSH1 0x40 MSTORE POP POP POP JUMP JUMPDEST PUSH1 0x0 PUSH2 0xFC9 DUP3 PUSH2 0xF83 JUMP JUMPDEST SWAP2 POP PUSH32 0xFFFFFFFFFFFFFFFFFFFFFFFFFFFFFFFFFFFFFFFFFFFFFFFFFFFFFFFFFFFFFFFF DUP3 EQ ISZERO PUSH2 0xFFC JUMPI PUSH2 0xFFB PUSH2 0x1036 JUMP JUMPDEST JUMPDEST PUSH1 0x1 DUP3 ADD SWAP1 POP SWAP2 SWAP1 POP JUMP JUMPDEST PUSH32 0x4E487B7100000000000000000000000000000000000000000000000000000000 PUSH1 0x0 MSTORE PUSH1 0x1 PUSH1 0x4 MSTORE PUSH1 0x24 PUSH1 0x0 REVERT JUMPDEST PUSH32 0x4E487B7100000000000000000000000000000000000000000000000000000000 PUSH1 0x0 MSTORE PUSH1 0x11 PUSH1 0x4 MSTORE PUSH1 0x24 PUSH1 0x0 REVERT JUMPDEST PUSH32 0x4E487B7100000000000000000000000000000000000000000000000000000000 PUSH1 0x0 MSTORE PUSH1 0x12 PUSH1 0x4 MSTORE PUSH1 0x24 PUSH1 0x0 REVERT JUMPDEST PUSH32 0x4E487B7100000000000000000000000000000000000000000000000000000000 PUSH1 0x0 MSTORE PUSH1 0x32 PUSH1 0x4 MSTORE PUSH1 0x24 PUSH1 0x0 REVERT JUMPDEST PUSH32 0x4E487B7100000000000000000000000000000000000000000000000000000000 PUSH1 0x0 MSTORE PUSH1 0x41 PUSH1 0x4 MSTORE PUSH1 0x24 PUSH1 0x0 REVERT JUMPDEST PUSH1 0x0 DUP1 REVERT JUMPDEST PUSH1 0x0 DUP1 REVERT JUMPDEST PUSH1 0x0 DUP1 REVERT JUMPDEST PUSH1 0x0 DUP1 REVERT JUMPDEST PUSH1 0x0 PUSH1 0x1F NOT PUSH1 0x1F DUP4 ADD AND SWAP1 POP SWAP2 SWAP1 POP JUMP JUMPDEST PUSH32 0x746F6F206561726C792064617465000000000000000000000000000000000000 PUSH1 0x0 DUP3 ADD MSTORE POP JUMP JUMPDEST PUSH32 0x6E656564206174206C6561737420312063616E64696461746500000000000000 PUSH1 0x0 DUP3 ADD MSTORE POP JUMP JUMPDEST PUSH32 0x63616E2774206265207A65726F20646179730000000000000000000000000000 PUSH1 0x0 DUP3 ADD MSTORE POP JUMP JUMPDEST PUSH32 0x746F6F206C617465206461746500000000000000000000000000000000000000 PUSH1 0x0 DUP3 ADD MSTORE POP JUMP JUMPDEST PUSH32 0x566F7465722068617320616C726561647920766F7465642E0000000000000000 PUSH1 0x0 DUP3 ADD MSTORE POP JUMP JUMPDEST PUSH2 0x11ED DUP2 PUSH2 0xF33 JUMP JUMPDEST DUP2 EQ PUSH2 0x11F8 JUMPI PUSH1 0x0 DUP1 REVERT JUMPDEST POP JUMP JUMPDEST PUSH2 0x1204 DUP2 PUSH2 0xF83 JUMP JUMPDEST DUP2 EQ PUSH2 0x120F JUMPI PUSH1 0x0 DUP1 REVERT JUMPDEST POP JUMP INVALID LOG2 PUSH5 0x6970667358 0x22 SLT KECCAK256 CREATE 0xA7 PUSH4 0xB5AD51C0 0xB9 0x4B PUSH26 0x375435E800EE404C0CDC97F1B797ADB2F0C5BDDF9D2264736F6C PUSH4 0x43000807 STOP CALLER "
				},
				"gasEstimates": {
					"creation": {
						"codeDepositCost": "936000",
						"executionCost": "25241",
						"totalCost": "961241"
					},
					"external": {
						"candidates(uint256)": "infinite",
						"check_early_date(uint256)": "719",
						"check_late_date(uint256)": "741",
						"createVoting(uint256,uint256,uint256,address[])": "infinite",
						"getVoteInfo()": "infinite",
						"main_contract()": "2536",
						"voteFor(uint256)": "infinite",
						"voters(address)": "5170",
						"withdrawFees()": "infinite"
					}
				},
				"methodIdentifiers": {
					"candidates(uint256)": "3477ee2e",
					"check_early_date(uint256)": "0d8a1bcb",
					"check_late_date(uint256)": "2102d43b",
					"createVoting(uint256,uint256,uint256,address[])": "75c5e531",
					"getVoteInfo()": "25dff9d1",
					"main_contract()": "4c5ee9fa",
					"voteFor(uint256)": "86a50535",
					"voters(address)": "a3ec138d",
					"withdrawFees()": "476343ee"
				}
			},
			"storageLayout": {
				"storage": [
					{
						"astId": 16,
						"contract": "contract/Ballot.sol:Ballot",
						"label": "voters",
						"offset": 0,
						"slot": "0",
						"type": "t_mapping(t_address,t_struct(voter)6_storage)"
					},
					{
						"astId": 20,
						"contract": "contract/Ballot.sol:Ballot",
						"label": "candidates",
						"offset": 0,
						"slot": "1",
						"type": "t_array(t_struct(candidate)11_storage)dyn_storage"
					},
					{
						"astId": 22,
						"contract": "contract/Ballot.sol:Ballot",
						"label": "main_contract",
						"offset": 0,
						"slot": "2",
						"type": "t_address"
					},
					{
						"astId": 24,
						"contract": "contract/Ballot.sol:Ballot",
						"label": "finish_date",
						"offset": 0,
						"slot": "3",
						"type": "t_uint256"
					},
					{
						"astId": 26,
						"contract": "contract/Ballot.sol:Ballot",
						"label": "x",
						"offset": 0,
						"slot": "4",
						"type": "t_uint256"
					},
					{
						"astId": 28,
						"contract": "contract/Ballot.sol:Ballot",
						"label": "f",
						"offset": 0,
						"slot": "5",
						"type": "t_uint256"
					}
				],
				"types": {
					"t_address": {
						"encoding": "inplace",
						"label": "address",
						"numberOfBytes": "20"
					},
					"t_address_payable": {
						"encoding": "inplace",
						"label": "address payable",
						"numberOfBytes": "20"
					},
					"t_array(t_struct(candidate)11_storage)dyn_storage": {
						"base": "t_struct(candidate)11_storage",
						"encoding": "dynamic_array",
						"label": "struct Ballot.candidate[]",
						"numberOfBytes": "32"
					},
					"t_bool": {
						"encoding": "inplace",
						"label": "bool",
						"numberOfBytes": "1"
					},
					"t_mapping(t_address,t_struct(voter)6_storage)": {
						"encoding": "mapping",
						"key": "t_address",
						"label": "mapping(address => struct Ballot.voter)",
						"numberOfBytes": "32",
						"value": "t_struct(voter)6_storage"
					},
					"t_struct(candidate)11_storage": {
						"encoding": "inplace",
						"label": "struct Ballot.candidate",
						"members": [
							{
								"astId": 8,
								"contract": "contract/Ballot.sol:Ballot",
								"label": "number_of_votes",
								"offset": 0,
								"slot": "0",
								"type": "t_uint256"
							},
							{
								"astId": 10,
								"contract": "contract/Ballot.sol:Ballot",
								"label": "account",
								"offset": 0,
								"slot": "1",
								"type": "t_address_payable"
							}
						],
						"numberOfBytes": "64"
					},
					"t_struct(voter)6_storage": {
						"encoding": "inplace",
						"label": "struct Ballot.voter",
						"members": [
							{
								"astId": 3,
								"contract": "contract/Ballot.sol:Ballot",
								"label": "voted",
								"offset": 0,
								"slot": "0",
								"type": "t_bool"
							},
							{
								"astId": 5,
								"contract": "contract/Ballot.sol:Ballot",
								"label": "vote",
								"offset": 0,
								"slot": "1",
								"type": "t_uint256"
							}
						],
						"numberOfBytes": "64"
					},
					"t_uint256": {
						"encoding": "inplace",
						"label": "uint256",
						"numberOfBytes": "32"
					}
				}
			},
			"userdoc": {
				"kind": "user",
				"methods": {},
				"version": 1
			}
		}
	}
}